{
	"Voting/voting.sol": {
		"Voting": {
			"abi": [
				{
					"inputs": [
						{
							"internalType": "string",
							"name": "user",
							"type": "string"
						}
					],
					"name": "getVotes",
					"outputs": [
						{
							"internalType": "uint256",
							"name": "",
							"type": "uint256"
						}
					],
					"stateMutability": "view",
					"type": "function"
				},
				{
					"inputs": [],
					"name": "resetVotes",
					"outputs": [],
					"stateMutability": "nonpayable",
					"type": "function"
				},
				{
					"inputs": [
						{
							"internalType": "string",
							"name": "user",
							"type": "string"
						}
					],
					"name": "setVote",
					"outputs": [],
					"stateMutability": "nonpayable",
					"type": "function"
				}
			],
			"devdoc": {
				"kind": "dev",
				"methods": {},
				"version": 1
			},
			"evm": {
				"assembly": "    /* \"Voting/voting.sol\":58:702  contract Voting{... */\n  mstore(0x40, 0x80)\n  callvalue\n  dup1\n  iszero\n  tag_1\n  jumpi\n  0x00\n  dup1\n  revert\ntag_1:\n  pop\n  dataSize(sub_0)\n  dup1\n  dataOffset(sub_0)\n  0x00\n  codecopy\n  0x00\n  return\nstop\n\nsub_0: assembly {\n        /* \"Voting/voting.sol\":58:702  contract Voting{... */\n      mstore(0x40, 0x80)\n      callvalue\n      dup1\n      iszero\n      tag_1\n      jumpi\n      0x00\n      dup1\n      revert\n    tag_1:\n      pop\n      jumpi(tag_2, lt(calldatasize, 0x04))\n      shr(0xe0, calldataload(0x00))\n      dup1\n      0x805265e5\n      eq\n      tag_3\n      jumpi\n      dup1\n      0xb9830ff1\n      eq\n      tag_4\n      jumpi\n      dup1\n      0xf1772a33\n      eq\n      tag_5\n      jumpi\n    tag_2:\n      0x00\n      dup1\n      revert\n        /* \"Voting/voting.sol\":455:562  function getVotes(string memory user) public view returns(uint256) {... */\n    tag_3:\n      tag_6\n      0x04\n      dup1\n      calldatasize\n      sub\n      dup2\n      add\n      swap1\n      tag_7\n      swap2\n      swap1\n      tag_8\n      jump\t// in\n    tag_7:\n      tag_9\n      jump\t// in\n    tag_6:\n      mload(0x40)\n      tag_10\n      swap2\n      swap1\n      tag_11\n      jump\t// in\n    tag_10:\n      mload(0x40)\n      dup1\n      swap2\n      sub\n      swap1\n      return\n        /* \"Voting/voting.sol\":570:699  function resetVotes() public {... */\n    tag_4:\n      tag_12\n      tag_13\n      jump\t// in\n    tag_12:\n      stop\n        /* \"Voting/voting.sol\":164:447  function setVote(string memory user) public {... */\n    tag_5:\n      tag_14\n      0x04\n      dup1\n      calldatasize\n      sub\n      dup2\n      add\n      swap1\n      tag_15\n      swap2\n      swap1\n      tag_8\n      jump\t// in\n    tag_15:\n      tag_16\n      jump\t// in\n    tag_14:\n      stop\n        /* \"Voting/voting.sol\":455:562  function getVotes(string memory user) public view returns(uint256) {... */\n    tag_9:\n        /* \"Voting/voting.sol\":513:520  uint256 */\n      0x00\n        /* \"Voting/voting.sol\":540:548  voteMaps */\n      dup1\n        /* \"Voting/voting.sol\":549:553  user */\n      dup3\n        /* \"Voting/voting.sol\":540:554  voteMaps[user] */\n      mload(0x40)\n      tag_18\n      swap2\n      swap1\n      tag_19\n      jump\t// in\n    tag_18:\n      swap1\n      dup2\n      mstore\n      0x20\n      add\n      mload(0x40)\n      dup1\n      swap2\n      sub\n      swap1\n      keccak256\n      sload\n        /* \"Voting/voting.sol\":533:554  return voteMaps[user] */\n      swap1\n      pop\n        /* \"Voting/voting.sol\":455:562  function getVotes(string memory user) public view returns(uint256) {... */\n      swap2\n      swap1\n      pop\n      jump\t// out\n        /* \"Voting/voting.sol\":570:699  function resetVotes() public {... */\n    tag_13:\n        /* \"Voting/voting.sol\":614:620  uint i */\n      0x00\n        /* \"Voting/voting.sol\":610:692  for(uint i=0; i<users.length; i++) {... */\n    tag_21:\n        /* \"Voting/voting.sol\":626:631  users */\n      0x01\n        /* \"Voting/voting.sol\":626:638  users.length */\n      dup1\n      sload\n      swap1\n      pop\n        /* \"Voting/voting.sol\":624:625  i */\n      dup2\n        /* \"Voting/voting.sol\":624:638  i<users.length */\n      lt\n        /* \"Voting/voting.sol\":610:692  for(uint i=0; i<users.length; i++) {... */\n      iszero\n      tag_22\n      jumpi\n        /* \"Voting/voting.sol\":679:680  0 */\n      0x00\n        /* \"Voting/voting.sol\":660:668  voteMaps */\n      dup1\n        /* \"Voting/voting.sol\":669:674  users */\n      0x01\n        /* \"Voting/voting.sol\":675:676  i */\n      dup4\n        /* \"Voting/voting.sol\":669:677  users[i] */\n      dup2\n      sload\n      dup2\n      lt\n      tag_24\n      jumpi\n      tag_25\n      tag_26\n      jump\t// in\n    tag_25:\n    tag_24:\n      swap1\n      0x00\n      mstore\n      keccak256(0x00, 0x20)\n      add\n        /* \"Voting/voting.sol\":660:678  voteMaps[users[i]] */\n      mload(0x40)\n      tag_28\n      swap2\n      swap1\n      tag_29\n      jump\t// in\n    tag_28:\n      swap1\n      dup2\n      mstore\n      0x20\n      add\n      mload(0x40)\n      dup1\n      swap2\n      sub\n      swap1\n      keccak256\n        /* \"Voting/voting.sol\":660:680  voteMaps[users[i]]=0 */\n      dup2\n      swap1\n      sstore\n      pop\n        /* \"Voting/voting.sol\":640:643  i++ */\n      dup1\n      dup1\n      0x01\n      add\n      swap2\n      pop\n      pop\n        /* \"Voting/voting.sol\":610:692  for(uint i=0; i<users.length; i++) {... */\n      jump(tag_21)\n    tag_22:\n      pop\n        /* \"Voting/voting.sol\":570:699  function resetVotes() public {... */\n      jump\t// out\n        /* \"Voting/voting.sol\":164:447  function setVote(string memory user) public {... */\n    tag_16:\n        /* \"Voting/voting.sol\":219:227  voteMaps */\n      0x00\n        /* \"Voting/voting.sol\":228:232  user */\n      dup2\n        /* \"Voting/voting.sol\":219:233  voteMaps[user] */\n      mload(0x40)\n      tag_31\n      swap2\n      swap1\n      tag_19\n      jump\t// in\n    tag_31:\n      swap1\n      dup2\n      mstore\n      0x20\n      add\n      mload(0x40)\n      dup1\n      swap2\n      sub\n      swap1\n      keccak256\n      0x00\n        /* \"Voting/voting.sol\":219:235  voteMaps[user]++ */\n      dup2\n      sload\n      dup1\n      swap3\n      swap2\n      swap1\n      tag_32\n      swap1\n      tag_33\n      jump\t// in\n    tag_32:\n      swap2\n      swap1\n      pop\n      sstore\n      pop\n        /* \"Voting/voting.sol\":250:256  uint i */\n      0x00\n        /* \"Voting/voting.sol\":246:413  for(uint i=0; i<users.length; i++){... */\n    tag_34:\n        /* \"Voting/voting.sol\":262:267  users */\n      0x01\n        /* \"Voting/voting.sol\":262:274  users.length */\n      dup1\n      sload\n      swap1\n      pop\n        /* \"Voting/voting.sol\":260:261  i */\n      dup2\n        /* \"Voting/voting.sol\":260:274  i<users.length */\n      lt\n        /* \"Voting/voting.sol\":246:413  for(uint i=0; i<users.length; i++){... */\n      iszero\n      tag_35\n      jumpi\n        /* \"Voting/voting.sol\":354:358  user */\n      dup2\n        /* \"Voting/voting.sol\":343:359  abi.encode(user) */\n      add(0x20, mload(0x40))\n      tag_37\n      swap2\n      swap1\n      tag_38\n      jump\t// in\n    tag_37:\n      mload(0x40)\n      0x20\n      dup2\n      dup4\n      sub\n      sub\n      dup2\n      mstore\n      swap1\n      0x40\n      mstore\n        /* \"Voting/voting.sol\":333:360  keccak256(abi.encode(user)) */\n      dup1\n      mload\n      swap1\n      0x20\n      add\n      keccak256\n        /* \"Voting/voting.sol\":319:324  users */\n      0x01\n        /* \"Voting/voting.sol\":325:326  i */\n      dup3\n        /* \"Voting/voting.sol\":319:327  users[i] */\n      dup2\n      sload\n      dup2\n      lt\n      tag_39\n      jumpi\n      tag_40\n      tag_26\n      jump\t// in\n    tag_40:\n    tag_39:\n      swap1\n      0x00\n      mstore\n      keccak256(0x00, 0x20)\n      add\n        /* \"Voting/voting.sol\":308:328  abi.encode(users[i]) */\n      add(0x20, mload(0x40))\n      tag_42\n      swap2\n      swap1\n      tag_43\n      jump\t// in\n    tag_42:\n      mload(0x40)\n      0x20\n      dup2\n      dup4\n      sub\n      sub\n      dup2\n      mstore\n      swap1\n      0x40\n      mstore\n        /* \"Voting/voting.sol\":298:329  keccak256(abi.encode(users[i])) */\n      dup1\n      mload\n      swap1\n      0x20\n      add\n      keccak256\n        /* \"Voting/voting.sol\":298:360  keccak256(abi.encode(users[i])) == keccak256(abi.encode(user)) */\n      sub\n        /* \"Voting/voting.sol\":295:402  if(keccak256(abi.encode(users[i])) == keccak256(abi.encode(user))){... */\n      tag_44\n      jumpi\n        /* \"Voting/voting.sol\":380:387  return; */\n      pop\n      jump(tag_30)\n        /* \"Voting/voting.sol\":295:402  if(keccak256(abi.encode(users[i])) == keccak256(abi.encode(user))){... */\n    tag_44:\n        /* \"Voting/voting.sol\":276:279  i++ */\n      dup1\n      dup1\n      0x01\n      add\n      swap2\n      pop\n      pop\n        /* \"Voting/voting.sol\":246:413  for(uint i=0; i<users.length; i++){... */\n      jump(tag_34)\n    tag_35:\n      pop\n        /* \"Voting/voting.sol\":423:428  users */\n      0x01\n        /* \"Voting/voting.sol\":434:438  user */\n      dup2\n        /* \"Voting/voting.sol\":423:439  users.push(user) */\n      swap1\n      dup1\n      0x01\n      dup2\n      sload\n      add\n      dup1\n      dup3\n      sstore\n      dup1\n      swap2\n      pop\n      pop\n      0x01\n      swap1\n      sub\n      swap1\n      0x00\n      mstore\n      keccak256(0x00, 0x20)\n      add\n      0x00\n      swap1\n      swap2\n      swap1\n      swap2\n      swap1\n      swap2\n      pop\n      swap1\n      dup2\n      tag_46\n      swap2\n      swap1\n      tag_47\n      jump\t// in\n    tag_46:\n      pop\n        /* \"Voting/voting.sol\":164:447  function setVote(string memory user) public {... */\n    tag_30:\n      pop\n      jump\t// out\n        /* \"#utility.yul\":7:82   */\n    tag_48:\n        /* \"#utility.yul\":40:46   */\n      0x00\n        /* \"#utility.yul\":73:75   */\n      0x40\n        /* \"#utility.yul\":67:76   */\n      mload\n        /* \"#utility.yul\":57:76   */\n      swap1\n      pop\n        /* \"#utility.yul\":7:82   */\n      swap1\n      jump\t// out\n        /* \"#utility.yul\":88:205   */\n    tag_49:\n        /* \"#utility.yul\":197:198   */\n      0x00\n        /* \"#utility.yul\":194:195   */\n      dup1\n        /* \"#utility.yul\":187:199   */\n      revert\n        /* \"#utility.yul\":211:328   */\n    tag_50:\n        /* \"#utility.yul\":320:321   */\n      0x00\n        /* \"#utility.yul\":317:318   */\n      dup1\n        /* \"#utility.yul\":310:322   */\n      revert\n        /* \"#utility.yul\":334:451   */\n    tag_51:\n        /* \"#utility.yul\":443:444   */\n      0x00\n        /* \"#utility.yul\":440:441   */\n      dup1\n        /* \"#utility.yul\":433:445   */\n      revert\n        /* \"#utility.yul\":457:574   */\n    tag_52:\n        /* \"#utility.yul\":566:567   */\n      0x00\n        /* \"#utility.yul\":563:564   */\n      dup1\n        /* \"#utility.yul\":556:568   */\n      revert\n        /* \"#utility.yul\":580:682   */\n    tag_53:\n        /* \"#utility.yul\":621:627   */\n      0x00\n        /* \"#utility.yul\":672:674   */\n      0x1f\n        /* \"#utility.yul\":668:675   */\n      not\n        /* \"#utility.yul\":663:665   */\n      0x1f\n        /* \"#utility.yul\":656:661   */\n      dup4\n        /* \"#utility.yul\":652:666   */\n      add\n        /* \"#utility.yul\":648:676   */\n      and\n        /* \"#utility.yul\":638:676   */\n      swap1\n      pop\n        /* \"#utility.yul\":580:682   */\n      swap2\n      swap1\n      pop\n      jump\t// out\n        /* \"#utility.yul\":688:868   */\n    tag_54:\n        /* \"#utility.yul\":736:813   */\n      0x4e487b7100000000000000000000000000000000000000000000000000000000\n        /* \"#utility.yul\":733:734   */\n      0x00\n        /* \"#utility.yul\":726:814   */\n      mstore\n        /* \"#utility.yul\":833:837   */\n      0x41\n        /* \"#utility.yul\":830:831   */\n      0x04\n        /* \"#utility.yul\":823:838   */\n      mstore\n        /* \"#utility.yul\":857:861   */\n      0x24\n        /* \"#utility.yul\":854:855   */\n      0x00\n        /* \"#utility.yul\":847:862   */\n      revert\n        /* \"#utility.yul\":874:1155   */\n    tag_55:\n        /* \"#utility.yul\":957:984   */\n      tag_98\n        /* \"#utility.yul\":979:983   */\n      dup3\n        /* \"#utility.yul\":957:984   */\n      tag_53\n      jump\t// in\n    tag_98:\n        /* \"#utility.yul\":949:955   */\n      dup2\n        /* \"#utility.yul\":945:985   */\n      add\n        /* \"#utility.yul\":1087:1093   */\n      dup2\n        /* \"#utility.yul\":1075:1085   */\n      dup2\n        /* \"#utility.yul\":1072:1094   */\n      lt\n        /* \"#utility.yul\":1051:1069   */\n      0xffffffffffffffff\n        /* \"#utility.yul\":1039:1049   */\n      dup3\n        /* \"#utility.yul\":1036:1070   */\n      gt\n        /* \"#utility.yul\":1033:1095   */\n      or\n        /* \"#utility.yul\":1030:1118   */\n      iszero\n      tag_99\n      jumpi\n        /* \"#utility.yul\":1098:1116   */\n      tag_100\n      tag_54\n      jump\t// in\n    tag_100:\n        /* \"#utility.yul\":1030:1118   */\n    tag_99:\n        /* \"#utility.yul\":1138:1148   */\n      dup1\n        /* \"#utility.yul\":1134:1136   */\n      0x40\n        /* \"#utility.yul\":1127:1149   */\n      mstore\n        /* \"#utility.yul\":917:1155   */\n      pop\n        /* \"#utility.yul\":874:1155   */\n      pop\n      pop\n      jump\t// out\n        /* \"#utility.yul\":1161:1290   */\n    tag_56:\n        /* \"#utility.yul\":1195:1201   */\n      0x00\n        /* \"#utility.yul\":1222:1242   */\n      tag_102\n      tag_48\n      jump\t// in\n    tag_102:\n        /* \"#utility.yul\":1212:1242   */\n      swap1\n      pop\n        /* \"#utility.yul\":1251:1284   */\n      tag_103\n        /* \"#utility.yul\":1279:1283   */\n      dup3\n        /* \"#utility.yul\":1271:1277   */\n      dup3\n        /* \"#utility.yul\":1251:1284   */\n      tag_55\n      jump\t// in\n    tag_103:\n        /* \"#utility.yul\":1161:1290   */\n      swap2\n      swap1\n      pop\n      jump\t// out\n        /* \"#utility.yul\":1296:1604   */\n    tag_57:\n        /* \"#utility.yul\":1358:1362   */\n      0x00\n        /* \"#utility.yul\":1448:1466   */\n      0xffffffffffffffff\n        /* \"#utility.yul\":1440:1446   */\n      dup3\n        /* \"#utility.yul\":1437:1467   */\n      gt\n        /* \"#utility.yul\":1434:1490   */\n      iszero\n      tag_105\n      jumpi\n        /* \"#utility.yul\":1470:1488   */\n      tag_106\n      tag_54\n      jump\t// in\n    tag_106:\n        /* \"#utility.yul\":1434:1490   */\n    tag_105:\n        /* \"#utility.yul\":1508:1537   */\n      tag_107\n        /* \"#utility.yul\":1530:1536   */\n      dup3\n        /* \"#utility.yul\":1508:1537   */\n      tag_53\n      jump\t// in\n    tag_107:\n        /* \"#utility.yul\":1500:1537   */\n      swap1\n      pop\n        /* \"#utility.yul\":1592:1596   */\n      0x20\n        /* \"#utility.yul\":1586:1590   */\n      dup2\n        /* \"#utility.yul\":1582:1597   */\n      add\n        /* \"#utility.yul\":1574:1597   */\n      swap1\n      pop\n        /* \"#utility.yul\":1296:1604   */\n      swap2\n      swap1\n      pop\n      jump\t// out\n        /* \"#utility.yul\":1610:1758   */\n    tag_58:\n        /* \"#utility.yul\":1708:1714   */\n      dup3\n        /* \"#utility.yul\":1703:1706   */\n      dup2\n        /* \"#utility.yul\":1698:1701   */\n      dup4\n        /* \"#utility.yul\":1685:1715   */\n      calldatacopy\n        /* \"#utility.yul\":1749:1750   */\n      0x00\n        /* \"#utility.yul\":1740:1746   */\n      dup4\n        /* \"#utility.yul\":1735:1738   */\n      dup4\n        /* \"#utility.yul\":1731:1747   */\n      add\n        /* \"#utility.yul\":1724:1751   */\n      mstore\n        /* \"#utility.yul\":1610:1758   */\n      pop\n      pop\n      pop\n      jump\t// out\n        /* \"#utility.yul\":1764:2189   */\n    tag_59:\n        /* \"#utility.yul\":1842:1847   */\n      0x00\n        /* \"#utility.yul\":1867:1933   */\n      tag_110\n        /* \"#utility.yul\":1883:1932   */\n      tag_111\n        /* \"#utility.yul\":1925:1931   */\n      dup5\n        /* \"#utility.yul\":1883:1932   */\n      tag_57\n      jump\t// in\n    tag_111:\n        /* \"#utility.yul\":1867:1933   */\n      tag_56\n      jump\t// in\n    tag_110:\n        /* \"#utility.yul\":1858:1933   */\n      swap1\n      pop\n        /* \"#utility.yul\":1956:1962   */\n      dup3\n        /* \"#utility.yul\":1949:1954   */\n      dup2\n        /* \"#utility.yul\":1942:1963   */\n      mstore\n        /* \"#utility.yul\":1994:1998   */\n      0x20\n        /* \"#utility.yul\":1987:1992   */\n      dup2\n        /* \"#utility.yul\":1983:1999   */\n      add\n        /* \"#utility.yul\":2032:2035   */\n      dup5\n        /* \"#utility.yul\":2023:2029   */\n      dup5\n        /* \"#utility.yul\":2018:2021   */\n      dup5\n        /* \"#utility.yul\":2014:2030   */\n      add\n        /* \"#utility.yul\":2011:2036   */\n      gt\n        /* \"#utility.yul\":2008:2120   */\n      iszero\n      tag_112\n      jumpi\n        /* \"#utility.yul\":2039:2118   */\n      tag_113\n      tag_52\n      jump\t// in\n    tag_113:\n        /* \"#utility.yul\":2008:2120   */\n    tag_112:\n        /* \"#utility.yul\":2129:2183   */\n      tag_114\n        /* \"#utility.yul\":2176:2182   */\n      dup5\n        /* \"#utility.yul\":2171:2174   */\n      dup3\n        /* \"#utility.yul\":2166:2169   */\n      dup6\n        /* \"#utility.yul\":2129:2183   */\n      tag_58\n      jump\t// in\n    tag_114:\n        /* \"#utility.yul\":1848:2189   */\n      pop\n        /* \"#utility.yul\":1764:2189   */\n      swap4\n      swap3\n      pop\n      pop\n      pop\n      jump\t// out\n        /* \"#utility.yul\":2209:2549   */\n    tag_60:\n        /* \"#utility.yul\":2265:2270   */\n      0x00\n        /* \"#utility.yul\":2314:2317   */\n      dup3\n        /* \"#utility.yul\":2307:2311   */\n      0x1f\n        /* \"#utility.yul\":2299:2305   */\n      dup4\n        /* \"#utility.yul\":2295:2312   */\n      add\n        /* \"#utility.yul\":2291:2318   */\n      slt\n        /* \"#utility.yul\":2281:2403   */\n      tag_116\n      jumpi\n        /* \"#utility.yul\":2322:2401   */\n      tag_117\n      tag_51\n      jump\t// in\n    tag_117:\n        /* \"#utility.yul\":2281:2403   */\n    tag_116:\n        /* \"#utility.yul\":2439:2445   */\n      dup2\n        /* \"#utility.yul\":2426:2446   */\n      calldataload\n        /* \"#utility.yul\":2464:2543   */\n      tag_118\n        /* \"#utility.yul\":2539:2542   */\n      dup5\n        /* \"#utility.yul\":2531:2537   */\n      dup3\n        /* \"#utility.yul\":2524:2528   */\n      0x20\n        /* \"#utility.yul\":2516:2522   */\n      dup7\n        /* \"#utility.yul\":2512:2529   */\n      add\n        /* \"#utility.yul\":2464:2543   */\n      tag_59\n      jump\t// in\n    tag_118:\n        /* \"#utility.yul\":2455:2543   */\n      swap2\n      pop\n        /* \"#utility.yul\":2271:2549   */\n      pop\n        /* \"#utility.yul\":2209:2549   */\n      swap3\n      swap2\n      pop\n      pop\n      jump\t// out\n        /* \"#utility.yul\":2555:3064   */\n    tag_8:\n        /* \"#utility.yul\":2624:2630   */\n      0x00\n        /* \"#utility.yul\":2673:2675   */\n      0x20\n        /* \"#utility.yul\":2661:2670   */\n      dup3\n        /* \"#utility.yul\":2652:2659   */\n      dup5\n        /* \"#utility.yul\":2648:2671   */\n      sub\n        /* \"#utility.yul\":2644:2676   */\n      slt\n        /* \"#utility.yul\":2641:2760   */\n      iszero\n      tag_120\n      jumpi\n        /* \"#utility.yul\":2679:2758   */\n      tag_121\n      tag_49\n      jump\t// in\n    tag_121:\n        /* \"#utility.yul\":2641:2760   */\n    tag_120:\n        /* \"#utility.yul\":2827:2828   */\n      0x00\n        /* \"#utility.yul\":2816:2825   */\n      dup3\n        /* \"#utility.yul\":2812:2829   */\n      add\n        /* \"#utility.yul\":2799:2830   */\n      calldataload\n        /* \"#utility.yul\":2857:2875   */\n      0xffffffffffffffff\n        /* \"#utility.yul\":2849:2855   */\n      dup2\n        /* \"#utility.yul\":2846:2876   */\n      gt\n        /* \"#utility.yul\":2843:2960   */\n      iszero\n      tag_122\n      jumpi\n        /* \"#utility.yul\":2879:2958   */\n      tag_123\n      tag_50\n      jump\t// in\n    tag_123:\n        /* \"#utility.yul\":2843:2960   */\n    tag_122:\n        /* \"#utility.yul\":2984:3047   */\n      tag_124\n        /* \"#utility.yul\":3039:3046   */\n      dup5\n        /* \"#utility.yul\":3030:3036   */\n      dup3\n        /* \"#utility.yul\":3019:3028   */\n      dup6\n        /* \"#utility.yul\":3015:3037   */\n      add\n        /* \"#utility.yul\":2984:3047   */\n      tag_60\n      jump\t// in\n    tag_124:\n        /* \"#utility.yul\":2974:3047   */\n      swap2\n      pop\n        /* \"#utility.yul\":2770:3057   */\n      pop\n        /* \"#utility.yul\":2555:3064   */\n      swap3\n      swap2\n      pop\n      pop\n      jump\t// out\n        /* \"#utility.yul\":3070:3147   */\n    tag_61:\n        /* \"#utility.yul\":3107:3114   */\n      0x00\n        /* \"#utility.yul\":3136:3141   */\n      dup2\n        /* \"#utility.yul\":3125:3141   */\n      swap1\n      pop\n        /* \"#utility.yul\":3070:3147   */\n      swap2\n      swap1\n      pop\n      jump\t// out\n        /* \"#utility.yul\":3153:3271   */\n    tag_62:\n        /* \"#utility.yul\":3240:3264   */\n      tag_127\n        /* \"#utility.yul\":3258:3263   */\n      dup2\n        /* \"#utility.yul\":3240:3264   */\n      tag_61\n      jump\t// in\n    tag_127:\n        /* \"#utility.yul\":3235:3238   */\n      dup3\n        /* \"#utility.yul\":3228:3265   */\n      mstore\n        /* \"#utility.yul\":3153:3271   */\n      pop\n      pop\n      jump\t// out\n        /* \"#utility.yul\":3277:3499   */\n    tag_11:\n        /* \"#utility.yul\":3370:3374   */\n      0x00\n        /* \"#utility.yul\":3408:3410   */\n      0x20\n        /* \"#utility.yul\":3397:3406   */\n      dup3\n        /* \"#utility.yul\":3393:3411   */\n      add\n        /* \"#utility.yul\":3385:3411   */\n      swap1\n      pop\n        /* \"#utility.yul\":3421:3492   */\n      tag_129\n        /* \"#utility.yul\":3489:3490   */\n      0x00\n        /* \"#utility.yul\":3478:3487   */\n      dup4\n        /* \"#utility.yul\":3474:3491   */\n      add\n        /* \"#utility.yul\":3465:3471   */\n      dup5\n        /* \"#utility.yul\":3421:3492   */\n      tag_62\n      jump\t// in\n    tag_129:\n        /* \"#utility.yul\":3277:3499   */\n      swap3\n      swap2\n      pop\n      pop\n      jump\t// out\n        /* \"#utility.yul\":3505:3604   */\n    tag_63:\n        /* \"#utility.yul\":3557:3563   */\n      0x00\n        /* \"#utility.yul\":3591:3596   */\n      dup2\n        /* \"#utility.yul\":3585:3597   */\n      mload\n        /* \"#utility.yul\":3575:3597   */\n      swap1\n      pop\n        /* \"#utility.yul\":3505:3604   */\n      swap2\n      swap1\n      pop\n      jump\t// out\n        /* \"#utility.yul\":3610:3758   */\n    tag_64:\n        /* \"#utility.yul\":3712:3723   */\n      0x00\n        /* \"#utility.yul\":3749:3752   */\n      dup2\n        /* \"#utility.yul\":3734:3752   */\n      swap1\n      pop\n        /* \"#utility.yul\":3610:3758   */\n      swap3\n      swap2\n      pop\n      pop\n      jump\t// out\n        /* \"#utility.yul\":3764:3903   */\n    tag_65:\n        /* \"#utility.yul\":3853:3859   */\n      dup3\n        /* \"#utility.yul\":3848:3851   */\n      dup2\n        /* \"#utility.yul\":3843:3846   */\n      dup4\n        /* \"#utility.yul\":3837:3860   */\n      mcopy\n        /* \"#utility.yul\":3894:3895   */\n      0x00\n        /* \"#utility.yul\":3885:3891   */\n      dup4\n        /* \"#utility.yul\":3880:3883   */\n      dup4\n        /* \"#utility.yul\":3876:3892   */\n      add\n        /* \"#utility.yul\":3869:3896   */\n      mstore\n        /* \"#utility.yul\":3764:3903   */\n      pop\n      pop\n      pop\n      jump\t// out\n        /* \"#utility.yul\":3909:4299   */\n    tag_66:\n        /* \"#utility.yul\":4015:4018   */\n      0x00\n        /* \"#utility.yul\":4043:4082   */\n      tag_134\n        /* \"#utility.yul\":4076:4081   */\n      dup3\n        /* \"#utility.yul\":4043:4082   */\n      tag_63\n      jump\t// in\n    tag_134:\n        /* \"#utility.yul\":4098:4187   */\n      tag_135\n        /* \"#utility.yul\":4180:4186   */\n      dup2\n        /* \"#utility.yul\":4175:4178   */\n      dup6\n        /* \"#utility.yul\":4098:4187   */\n      tag_64\n      jump\t// in\n    tag_135:\n        /* \"#utility.yul\":4091:4187   */\n      swap4\n      pop\n        /* \"#utility.yul\":4196:4261   */\n      tag_136\n        /* \"#utility.yul\":4254:4260   */\n      dup2\n        /* \"#utility.yul\":4249:4252   */\n      dup6\n        /* \"#utility.yul\":4242:4246   */\n      0x20\n        /* \"#utility.yul\":4235:4240   */\n      dup7\n        /* \"#utility.yul\":4231:4247   */\n      add\n        /* \"#utility.yul\":4196:4261   */\n      tag_65\n      jump\t// in\n    tag_136:\n        /* \"#utility.yul\":4286:4292   */\n      dup1\n        /* \"#utility.yul\":4281:4284   */\n      dup5\n        /* \"#utility.yul\":4277:4293   */\n      add\n        /* \"#utility.yul\":4270:4293   */\n      swap2\n      pop\n        /* \"#utility.yul\":4019:4299   */\n      pop\n        /* \"#utility.yul\":3909:4299   */\n      swap3\n      swap2\n      pop\n      pop\n      jump\t// out\n        /* \"#utility.yul\":4305:4580   */\n    tag_19:\n        /* \"#utility.yul\":4437:4440   */\n      0x00\n        /* \"#utility.yul\":4459:4554   */\n      tag_138\n        /* \"#utility.yul\":4550:4553   */\n      dup3\n        /* \"#utility.yul\":4541:4547   */\n      dup5\n        /* \"#utility.yul\":4459:4554   */\n      tag_66\n      jump\t// in\n    tag_138:\n        /* \"#utility.yul\":4452:4554   */\n      swap2\n      pop\n        /* \"#utility.yul\":4571:4574   */\n      dup2\n        /* \"#utility.yul\":4564:4574   */\n      swap1\n      pop\n        /* \"#utility.yul\":4305:4580   */\n      swap3\n      swap2\n      pop\n      pop\n      jump\t// out\n        /* \"#utility.yul\":4586:4766   */\n    tag_26:\n        /* \"#utility.yul\":4634:4711   */\n      0x4e487b7100000000000000000000000000000000000000000000000000000000\n        /* \"#utility.yul\":4631:4632   */\n      0x00\n        /* \"#utility.yul\":4624:4712   */\n      mstore\n        /* \"#utility.yul\":4731:4735   */\n      0x32\n        /* \"#utility.yul\":4728:4729   */\n      0x04\n        /* \"#utility.yul\":4721:4736   */\n      mstore\n        /* \"#utility.yul\":4755:4759   */\n      0x24\n        /* \"#utility.yul\":4752:4753   */\n      0x00\n        /* \"#utility.yul\":4745:4760   */\n      revert\n        /* \"#utility.yul\":4772:4952   */\n    tag_67:\n        /* \"#utility.yul\":4820:4897   */\n      0x4e487b7100000000000000000000000000000000000000000000000000000000\n        /* \"#utility.yul\":4817:4818   */\n      0x00\n        /* \"#utility.yul\":4810:4898   */\n      mstore\n        /* \"#utility.yul\":4917:4921   */\n      0x22\n        /* \"#utility.yul\":4914:4915   */\n      0x04\n        /* \"#utility.yul\":4907:4922   */\n      mstore\n        /* \"#utility.yul\":4941:4945   */\n      0x24\n        /* \"#utility.yul\":4938:4939   */\n      0x00\n        /* \"#utility.yul\":4931:4946   */\n      revert\n        /* \"#utility.yul\":4958:5278   */\n    tag_68:\n        /* \"#utility.yul\":5002:5008   */\n      0x00\n        /* \"#utility.yul\":5039:5040   */\n      0x02\n        /* \"#utility.yul\":5033:5037   */\n      dup3\n        /* \"#utility.yul\":5029:5041   */\n      div\n        /* \"#utility.yul\":5019:5041   */\n      swap1\n      pop\n        /* \"#utility.yul\":5086:5087   */\n      0x01\n        /* \"#utility.yul\":5080:5084   */\n      dup3\n        /* \"#utility.yul\":5076:5088   */\n      and\n        /* \"#utility.yul\":5107:5125   */\n      dup1\n        /* \"#utility.yul\":5097:5178   */\n      tag_142\n      jumpi\n        /* \"#utility.yul\":5163:5167   */\n      0x7f\n        /* \"#utility.yul\":5155:5161   */\n      dup3\n        /* \"#utility.yul\":5151:5168   */\n      and\n        /* \"#utility.yul\":5141:5168   */\n      swap2\n      pop\n        /* \"#utility.yul\":5097:5178   */\n    tag_142:\n        /* \"#utility.yul\":5225:5227   */\n      0x20\n        /* \"#utility.yul\":5217:5223   */\n      dup3\n        /* \"#utility.yul\":5214:5228   */\n      lt\n        /* \"#utility.yul\":5194:5212   */\n      dup2\n        /* \"#utility.yul\":5191:5229   */\n      sub\n        /* \"#utility.yul\":5188:5272   */\n      tag_143\n      jumpi\n        /* \"#utility.yul\":5244:5262   */\n      tag_144\n      tag_67\n      jump\t// in\n    tag_144:\n        /* \"#utility.yul\":5188:5272   */\n    tag_143:\n        /* \"#utility.yul\":5009:5278   */\n      pop\n        /* \"#utility.yul\":4958:5278   */\n      swap2\n      swap1\n      pop\n      jump\t// out\n        /* \"#utility.yul\":5284:5425   */\n    tag_69:\n        /* \"#utility.yul\":5333:5337   */\n      0x00\n        /* \"#utility.yul\":5356:5359   */\n      dup2\n        /* \"#utility.yul\":5348:5359   */\n      swap1\n      pop\n        /* \"#utility.yul\":5379:5382   */\n      dup2\n        /* \"#utility.yul\":5376:5377   */\n      0x00\n        /* \"#utility.yul\":5369:5383   */\n      mstore\n        /* \"#utility.yul\":5413:5417   */\n      0x20\n        /* \"#utility.yul\":5410:5411   */\n      0x00\n        /* \"#utility.yul\":5400:5418   */\n      keccak256\n        /* \"#utility.yul\":5392:5418   */\n      swap1\n      pop\n        /* \"#utility.yul\":5284:5425   */\n      swap2\n      swap1\n      pop\n      jump\t// out\n        /* \"#utility.yul\":5455:6329   */\n    tag_70:\n        /* \"#utility.yul\":5558:5561   */\n      0x00\n        /* \"#utility.yul\":5595:5600   */\n      dup2\n        /* \"#utility.yul\":5589:5601   */\n      sload\n        /* \"#utility.yul\":5624:5660   */\n      tag_147\n        /* \"#utility.yul\":5650:5659   */\n      dup2\n        /* \"#utility.yul\":5624:5660   */\n      tag_68\n      jump\t// in\n    tag_147:\n        /* \"#utility.yul\":5676:5765   */\n      tag_148\n        /* \"#utility.yul\":5758:5764   */\n      dup2\n        /* \"#utility.yul\":5753:5756   */\n      dup7\n        /* \"#utility.yul\":5676:5765   */\n      tag_64\n      jump\t// in\n    tag_148:\n        /* \"#utility.yul\":5669:5765   */\n      swap5\n      pop\n        /* \"#utility.yul\":5796:5797   */\n      0x01\n        /* \"#utility.yul\":5785:5794   */\n      dup3\n        /* \"#utility.yul\":5781:5798   */\n      and\n        /* \"#utility.yul\":5812:5813   */\n      0x00\n        /* \"#utility.yul\":5807:5973   */\n      dup2\n      eq\n      tag_150\n      jumpi\n        /* \"#utility.yul\":5987:5988   */\n      0x01\n        /* \"#utility.yul\":5982:6323   */\n      dup2\n      eq\n      tag_151\n      jumpi\n        /* \"#utility.yul\":5774:6323   */\n      jump(tag_149)\n        /* \"#utility.yul\":5807:5973   */\n    tag_150:\n        /* \"#utility.yul\":5891:5895   */\n      0xff\n        /* \"#utility.yul\":5887:5896   */\n      not\n        /* \"#utility.yul\":5876:5885   */\n      dup4\n        /* \"#utility.yul\":5872:5897   */\n      and\n        /* \"#utility.yul\":5867:5870   */\n      dup7\n        /* \"#utility.yul\":5860:5898   */\n      mstore\n        /* \"#utility.yul\":5953:5959   */\n      dup2\n        /* \"#utility.yul\":5946:5960   */\n      iszero\n        /* \"#utility.yul\":5939:5961   */\n      iszero\n        /* \"#utility.yul\":5931:5937   */\n      dup3\n        /* \"#utility.yul\":5927:5962   */\n      mul\n        /* \"#utility.yul\":5922:5925   */\n      dup7\n        /* \"#utility.yul\":5918:5963   */\n      add\n        /* \"#utility.yul\":5911:5963   */\n      swap4\n      pop\n        /* \"#utility.yul\":5807:5973   */\n      jump(tag_149)\n        /* \"#utility.yul\":5982:6323   */\n    tag_151:\n        /* \"#utility.yul\":6049:6087   */\n      tag_152\n        /* \"#utility.yul\":6081:6086   */\n      dup6\n        /* \"#utility.yul\":6049:6087   */\n      tag_69\n      jump\t// in\n    tag_152:\n        /* \"#utility.yul\":6109:6110   */\n      0x00\n        /* \"#utility.yul\":6123:6277   */\n    tag_153:\n        /* \"#utility.yul\":6137:6143   */\n      dup4\n        /* \"#utility.yul\":6134:6135   */\n      dup2\n        /* \"#utility.yul\":6131:6144   */\n      lt\n        /* \"#utility.yul\":6123:6277   */\n      iszero\n      tag_155\n      jumpi\n        /* \"#utility.yul\":6211:6218   */\n      dup2\n        /* \"#utility.yul\":6205:6219   */\n      sload\n        /* \"#utility.yul\":6201:6202   */\n      dup2\n        /* \"#utility.yul\":6196:6199   */\n      dup10\n        /* \"#utility.yul\":6192:6203   */\n      add\n        /* \"#utility.yul\":6185:6220   */\n      mstore\n        /* \"#utility.yul\":6261:6262   */\n      0x01\n        /* \"#utility.yul\":6252:6259   */\n      dup3\n        /* \"#utility.yul\":6248:6263   */\n      add\n        /* \"#utility.yul\":6237:6263   */\n      swap2\n      pop\n        /* \"#utility.yul\":6159:6163   */\n      0x20\n        /* \"#utility.yul\":6156:6157   */\n      dup2\n        /* \"#utility.yul\":6152:6164   */\n      add\n        /* \"#utility.yul\":6147:6164   */\n      swap1\n      pop\n        /* \"#utility.yul\":6123:6277   */\n      jump(tag_153)\n    tag_155:\n        /* \"#utility.yul\":6306:6312   */\n      dup4\n        /* \"#utility.yul\":6301:6304   */\n      dup9\n        /* \"#utility.yul\":6297:6313   */\n      add\n        /* \"#utility.yul\":6290:6313   */\n      swap6\n      pop\n        /* \"#utility.yul\":5989:6323   */\n      pop\n      pop\n        /* \"#utility.yul\":5774:6323   */\n    tag_149:\n      pop\n        /* \"#utility.yul\":5562:6329   */\n      pop\n      pop\n        /* \"#utility.yul\":5455:6329   */\n      swap3\n      swap2\n      pop\n      pop\n      jump\t// out\n        /* \"#utility.yul\":6335:6604   */\n    tag_29:\n        /* \"#utility.yul\":6464:6467   */\n      0x00\n        /* \"#utility.yul\":6486:6578   */\n      tag_157\n        /* \"#utility.yul\":6574:6577   */\n      dup3\n        /* \"#utility.yul\":6565:6571   */\n      dup5\n        /* \"#utility.yul\":6486:6578   */\n      tag_70\n      jump\t// in\n    tag_157:\n        /* \"#utility.yul\":6479:6578   */\n      swap2\n      pop\n        /* \"#utility.yul\":6595:6598   */\n      dup2\n        /* \"#utility.yul\":6588:6598   */\n      swap1\n      pop\n        /* \"#utility.yul\":6335:6604   */\n      swap3\n      swap2\n      pop\n      pop\n      jump\t// out\n        /* \"#utility.yul\":6610:6790   */\n    tag_71:\n        /* \"#utility.yul\":6658:6735   */\n      0x4e487b7100000000000000000000000000000000000000000000000000000000\n        /* \"#utility.yul\":6655:6656   */\n      0x00\n        /* \"#utility.yul\":6648:6736   */\n      mstore\n        /* \"#utility.yul\":6755:6759   */\n      0x11\n        /* \"#utility.yul\":6752:6753   */\n      0x04\n        /* \"#utility.yul\":6745:6760   */\n      mstore\n        /* \"#utility.yul\":6779:6783   */\n      0x24\n        /* \"#utility.yul\":6776:6777   */\n      0x00\n        /* \"#utility.yul\":6769:6784   */\n      revert\n        /* \"#utility.yul\":6796:7029   */\n    tag_33:\n        /* \"#utility.yul\":6835:6838   */\n      0x00\n        /* \"#utility.yul\":6858:6882   */\n      tag_160\n        /* \"#utility.yul\":6876:6881   */\n      dup3\n        /* \"#utility.yul\":6858:6882   */\n      tag_61\n      jump\t// in\n    tag_160:\n        /* \"#utility.yul\":6849:6882   */\n      swap2\n      pop\n        /* \"#utility.yul\":6904:6970   */\n      0xffffffffffffffffffffffffffffffffffffffffffffffffffffffffffffffff\n        /* \"#utility.yul\":6897:6902   */\n      dup3\n        /* \"#utility.yul\":6894:6971   */\n      sub\n        /* \"#utility.yul\":6891:6994   */\n      tag_161\n      jumpi\n        /* \"#utility.yul\":6974:6992   */\n      tag_162\n      tag_71\n      jump\t// in\n    tag_162:\n        /* \"#utility.yul\":6891:6994   */\n    tag_161:\n        /* \"#utility.yul\":7021:7022   */\n      0x01\n        /* \"#utility.yul\":7014:7019   */\n      dup3\n        /* \"#utility.yul\":7010:7023   */\n      add\n        /* \"#utility.yul\":7003:7023   */\n      swap1\n      pop\n        /* \"#utility.yul\":6796:7029   */\n      swap2\n      swap1\n      pop\n      jump\t// out\n        /* \"#utility.yul\":7035:7204   */\n    tag_72:\n        /* \"#utility.yul\":7119:7130   */\n      0x00\n        /* \"#utility.yul\":7153:7159   */\n      dup3\n        /* \"#utility.yul\":7148:7151   */\n      dup3\n        /* \"#utility.yul\":7141:7160   */\n      mstore\n        /* \"#utility.yul\":7193:7197   */\n      0x20\n        /* \"#utility.yul\":7188:7191   */\n      dup3\n        /* \"#utility.yul\":7184:7198   */\n      add\n        /* \"#utility.yul\":7169:7198   */\n      swap1\n      pop\n        /* \"#utility.yul\":7035:7204   */\n      swap3\n      swap2\n      pop\n      pop\n      jump\t// out\n        /* \"#utility.yul\":7210:7587   */\n    tag_73:\n        /* \"#utility.yul\":7298:7301   */\n      0x00\n        /* \"#utility.yul\":7326:7365   */\n      tag_165\n        /* \"#utility.yul\":7359:7364   */\n      dup3\n        /* \"#utility.yul\":7326:7365   */\n      tag_63\n      jump\t// in\n    tag_165:\n        /* \"#utility.yul\":7381:7452   */\n      tag_166\n        /* \"#utility.yul\":7445:7451   */\n      dup2\n        /* \"#utility.yul\":7440:7443   */\n      dup6\n        /* \"#utility.yul\":7381:7452   */\n      tag_72\n      jump\t// in\n    tag_166:\n        /* \"#utility.yul\":7374:7452   */\n      swap4\n      pop\n        /* \"#utility.yul\":7461:7526   */\n      tag_167\n        /* \"#utility.yul\":7519:7525   */\n      dup2\n        /* \"#utility.yul\":7514:7517   */\n      dup6\n        /* \"#utility.yul\":7507:7511   */\n      0x20\n        /* \"#utility.yul\":7500:7505   */\n      dup7\n        /* \"#utility.yul\":7496:7512   */\n      add\n        /* \"#utility.yul\":7461:7526   */\n      tag_65\n      jump\t// in\n    tag_167:\n        /* \"#utility.yul\":7551:7580   */\n      tag_168\n        /* \"#utility.yul\":7573:7579   */\n      dup2\n        /* \"#utility.yul\":7551:7580   */\n      tag_53\n      jump\t// in\n    tag_168:\n        /* \"#utility.yul\":7546:7549   */\n      dup5\n        /* \"#utility.yul\":7542:7581   */\n      add\n        /* \"#utility.yul\":7535:7581   */\n      swap2\n      pop\n        /* \"#utility.yul\":7302:7587   */\n      pop\n        /* \"#utility.yul\":7210:7587   */\n      swap3\n      swap2\n      pop\n      pop\n      jump\t// out\n        /* \"#utility.yul\":7593:7906   */\n    tag_38:\n        /* \"#utility.yul\":7706:7710   */\n      0x00\n        /* \"#utility.yul\":7744:7746   */\n      0x20\n        /* \"#utility.yul\":7733:7742   */\n      dup3\n        /* \"#utility.yul\":7729:7747   */\n      add\n        /* \"#utility.yul\":7721:7747   */\n      swap1\n      pop\n        /* \"#utility.yul\":7793:7802   */\n      dup2\n        /* \"#utility.yul\":7787:7791   */\n      dup2\n        /* \"#utility.yul\":7783:7803   */\n      sub\n        /* \"#utility.yul\":7779:7780   */\n      0x00\n        /* \"#utility.yul\":7768:7777   */\n      dup4\n        /* \"#utility.yul\":7764:7781   */\n      add\n        /* \"#utility.yul\":7757:7804   */\n      mstore\n        /* \"#utility.yul\":7821:7899   */\n      tag_170\n        /* \"#utility.yul\":7894:7898   */\n      dup2\n        /* \"#utility.yul\":7885:7891   */\n      dup5\n        /* \"#utility.yul\":7821:7899   */\n      tag_73\n      jump\t// in\n    tag_170:\n        /* \"#utility.yul\":7813:7899   */\n      swap1\n      pop\n        /* \"#utility.yul\":7593:7906   */\n      swap3\n      swap2\n      pop\n      pop\n      jump\t// out\n        /* \"#utility.yul\":7936:8767   */\n    tag_74:\n        /* \"#utility.yul\":8021:8024   */\n      0x00\n        /* \"#utility.yul\":8058:8063   */\n      dup2\n        /* \"#utility.yul\":8052:8064   */\n      sload\n        /* \"#utility.yul\":8087:8123   */\n      tag_172\n        /* \"#utility.yul\":8113:8122   */\n      dup2\n        /* \"#utility.yul\":8087:8123   */\n      tag_68\n      jump\t// in\n    tag_172:\n        /* \"#utility.yul\":8139:8210   */\n      tag_173\n        /* \"#utility.yul\":8203:8209   */\n      dup2\n        /* \"#utility.yul\":8198:8201   */\n      dup7\n        /* \"#utility.yul\":8139:8210   */\n      tag_72\n      jump\t// in\n    tag_173:\n        /* \"#utility.yul\":8132:8210   */\n      swap5\n      pop\n        /* \"#utility.yul\":8241:8242   */\n      0x01\n        /* \"#utility.yul\":8230:8239   */\n      dup3\n        /* \"#utility.yul\":8226:8243   */\n      and\n        /* \"#utility.yul\":8257:8258   */\n      0x00\n        /* \"#utility.yul\":8252:8416   */\n      dup2\n      eq\n      tag_175\n      jumpi\n        /* \"#utility.yul\":8430:8431   */\n      0x01\n        /* \"#utility.yul\":8425:8761   */\n      dup2\n      eq\n      tag_176\n      jumpi\n        /* \"#utility.yul\":8219:8761   */\n      jump(tag_174)\n        /* \"#utility.yul\":8252:8416   */\n    tag_175:\n        /* \"#utility.yul\":8336:8340   */\n      0xff\n        /* \"#utility.yul\":8332:8341   */\n      not\n        /* \"#utility.yul\":8321:8330   */\n      dup4\n        /* \"#utility.yul\":8317:8342   */\n      and\n        /* \"#utility.yul\":8312:8315   */\n      dup7\n        /* \"#utility.yul\":8305:8343   */\n      mstore\n        /* \"#utility.yul\":8396:8402   */\n      dup2\n        /* \"#utility.yul\":8389:8403   */\n      iszero\n        /* \"#utility.yul\":8382:8404   */\n      iszero\n        /* \"#utility.yul\":8376:8380   */\n      0x20\n        /* \"#utility.yul\":8372:8405   */\n      mul\n        /* \"#utility.yul\":8367:8370   */\n      dup7\n        /* \"#utility.yul\":8363:8406   */\n      add\n        /* \"#utility.yul\":8356:8406   */\n      swap4\n      pop\n        /* \"#utility.yul\":8252:8416   */\n      jump(tag_174)\n        /* \"#utility.yul\":8425:8761   */\n    tag_176:\n        /* \"#utility.yul\":8492:8530   */\n      tag_177\n        /* \"#utility.yul\":8524:8529   */\n      dup6\n        /* \"#utility.yul\":8492:8530   */\n      tag_69\n      jump\t// in\n    tag_177:\n        /* \"#utility.yul\":8552:8553   */\n      0x00\n        /* \"#utility.yul\":8566:8720   */\n    tag_178:\n        /* \"#utility.yul\":8580:8586   */\n      dup4\n        /* \"#utility.yul\":8577:8578   */\n      dup2\n        /* \"#utility.yul\":8574:8587   */\n      lt\n        /* \"#utility.yul\":8566:8720   */\n      iszero\n      tag_180\n      jumpi\n        /* \"#utility.yul\":8654:8661   */\n      dup2\n        /* \"#utility.yul\":8648:8662   */\n      sload\n        /* \"#utility.yul\":8644:8645   */\n      dup2\n        /* \"#utility.yul\":8639:8642   */\n      dup10\n        /* \"#utility.yul\":8635:8646   */\n      add\n        /* \"#utility.yul\":8628:8663   */\n      mstore\n        /* \"#utility.yul\":8704:8705   */\n      0x01\n        /* \"#utility.yul\":8695:8702   */\n      dup3\n        /* \"#utility.yul\":8691:8706   */\n      add\n        /* \"#utility.yul\":8680:8706   */\n      swap2\n      pop\n        /* \"#utility.yul\":8602:8606   */\n      0x20\n        /* \"#utility.yul\":8599:8600   */\n      dup2\n        /* \"#utility.yul\":8595:8607   */\n      add\n        /* \"#utility.yul\":8590:8607   */\n      swap1\n      pop\n        /* \"#utility.yul\":8566:8720   */\n      jump(tag_178)\n    tag_180:\n        /* \"#utility.yul\":8749:8750   */\n      dup1\n        /* \"#utility.yul\":8744:8747   */\n      dup9\n        /* \"#utility.yul\":8740:8751   */\n      add\n        /* \"#utility.yul\":8733:8751   */\n      swap6\n      pop\n        /* \"#utility.yul\":8432:8761   */\n      pop\n      pop\n        /* \"#utility.yul\":8219:8761   */\n    tag_174:\n      pop\n        /* \"#utility.yul\":8025:8767   */\n      pop\n      pop\n        /* \"#utility.yul\":7936:8767   */\n      swap3\n      swap2\n      pop\n      pop\n      jump\t// out\n        /* \"#utility.yul\":8773:9080   */\n    tag_43:\n        /* \"#utility.yul\":8883:8887   */\n      0x00\n        /* \"#utility.yul\":8921:8923   */\n      0x20\n        /* \"#utility.yul\":8910:8919   */\n      dup3\n        /* \"#utility.yul\":8906:8924   */\n      add\n        /* \"#utility.yul\":8898:8924   */\n      swap1\n      pop\n        /* \"#utility.yul\":8970:8979   */\n      dup2\n        /* \"#utility.yul\":8964:8968   */\n      dup2\n        /* \"#utility.yul\":8960:8980   */\n      sub\n        /* \"#utility.yul\":8956:8957   */\n      0x00\n        /* \"#utility.yul\":8945:8954   */\n      dup4\n        /* \"#utility.yul\":8941:8958   */\n      add\n        /* \"#utility.yul\":8934:8981   */\n      mstore\n        /* \"#utility.yul\":8998:9073   */\n      tag_182\n        /* \"#utility.yul\":9068:9072   */\n      dup2\n        /* \"#utility.yul\":9059:9065   */\n      dup5\n        /* \"#utility.yul\":8998:9073   */\n      tag_74\n      jump\t// in\n    tag_182:\n        /* \"#utility.yul\":8990:9073   */\n      swap1\n      pop\n        /* \"#utility.yul\":8773:9080   */\n      swap3\n      swap2\n      pop\n      pop\n      jump\t// out\n        /* \"#utility.yul\":9086:9179   */\n    tag_75:\n        /* \"#utility.yul\":9123:9129   */\n      0x00\n        /* \"#utility.yul\":9170:9172   */\n      0x20\n        /* \"#utility.yul\":9165:9167   */\n      0x1f\n        /* \"#utility.yul\":9158:9163   */\n      dup4\n        /* \"#utility.yul\":9154:9168   */\n      add\n        /* \"#utility.yul\":9150:9173   */\n      div\n        /* \"#utility.yul\":9140:9173   */\n      swap1\n      pop\n        /* \"#utility.yul\":9086:9179   */\n      swap2\n      swap1\n      pop\n      jump\t// out\n        /* \"#utility.yul\":9185:9292   */\n    tag_76:\n        /* \"#utility.yul\":9229:9237   */\n      0x00\n        /* \"#utility.yul\":9279:9284   */\n      dup3\n        /* \"#utility.yul\":9273:9277   */\n      dup3\n        /* \"#utility.yul\":9269:9285   */\n      shl\n        /* \"#utility.yul\":9248:9285   */\n      swap1\n      pop\n        /* \"#utility.yul\":9185:9292   */\n      swap3\n      swap2\n      pop\n      pop\n      jump\t// out\n        /* \"#utility.yul\":9298:9691   */\n    tag_77:\n        /* \"#utility.yul\":9367:9373   */\n      0x00\n        /* \"#utility.yul\":9417:9418   */\n      0x08\n        /* \"#utility.yul\":9405:9415   */\n      dup4\n        /* \"#utility.yul\":9401:9419   */\n      mul\n        /* \"#utility.yul\":9440:9537   */\n      tag_186\n        /* \"#utility.yul\":9470:9536   */\n      0xffffffffffffffffffffffffffffffffffffffffffffffffffffffffffffffff\n        /* \"#utility.yul\":9459:9468   */\n      dup3\n        /* \"#utility.yul\":9440:9537   */\n      tag_76\n      jump\t// in\n    tag_186:\n        /* \"#utility.yul\":9558:9597   */\n      tag_187\n        /* \"#utility.yul\":9588:9596   */\n      dup7\n        /* \"#utility.yul\":9577:9586   */\n      dup4\n        /* \"#utility.yul\":9558:9597   */\n      tag_76\n      jump\t// in\n    tag_187:\n        /* \"#utility.yul\":9546:9597   */\n      swap6\n      pop\n        /* \"#utility.yul\":9630:9634   */\n      dup1\n        /* \"#utility.yul\":9626:9635   */\n      not\n        /* \"#utility.yul\":9619:9624   */\n      dup5\n        /* \"#utility.yul\":9615:9636   */\n      and\n        /* \"#utility.yul\":9606:9636   */\n      swap4\n      pop\n        /* \"#utility.yul\":9679:9683   */\n      dup1\n        /* \"#utility.yul\":9669:9677   */\n      dup7\n        /* \"#utility.yul\":9665:9684   */\n      and\n        /* \"#utility.yul\":9658:9663   */\n      dup5\n        /* \"#utility.yul\":9655:9685   */\n      or\n        /* \"#utility.yul\":9645:9685   */\n      swap3\n      pop\n        /* \"#utility.yul\":9374:9691   */\n      pop\n      pop\n        /* \"#utility.yul\":9298:9691   */\n      swap4\n      swap3\n      pop\n      pop\n      pop\n      jump\t// out\n        /* \"#utility.yul\":9697:9757   */\n    tag_78:\n        /* \"#utility.yul\":9725:9728   */\n      0x00\n        /* \"#utility.yul\":9746:9751   */\n      dup2\n        /* \"#utility.yul\":9739:9751   */\n      swap1\n      pop\n        /* \"#utility.yul\":9697:9757   */\n      swap2\n      swap1\n      pop\n      jump\t// out\n        /* \"#utility.yul\":9763:9905   */\n    tag_79:\n        /* \"#utility.yul\":9813:9822   */\n      0x00\n        /* \"#utility.yul\":9846:9899   */\n      tag_190\n        /* \"#utility.yul\":9864:9898   */\n      tag_191\n        /* \"#utility.yul\":9873:9897   */\n      tag_192\n        /* \"#utility.yul\":9891:9896   */\n      dup5\n        /* \"#utility.yul\":9873:9897   */\n      tag_61\n      jump\t// in\n    tag_192:\n        /* \"#utility.yul\":9864:9898   */\n      tag_78\n      jump\t// in\n    tag_191:\n        /* \"#utility.yul\":9846:9899   */\n      tag_61\n      jump\t// in\n    tag_190:\n        /* \"#utility.yul\":9833:9899   */\n      swap1\n      pop\n        /* \"#utility.yul\":9763:9905   */\n      swap2\n      swap1\n      pop\n      jump\t// out\n        /* \"#utility.yul\":9911:9986   */\n    tag_80:\n        /* \"#utility.yul\":9954:9957   */\n      0x00\n        /* \"#utility.yul\":9975:9980   */\n      dup2\n        /* \"#utility.yul\":9968:9980   */\n      swap1\n      pop\n        /* \"#utility.yul\":9911:9986   */\n      swap2\n      swap1\n      pop\n      jump\t// out\n        /* \"#utility.yul\":9992:10261   */\n    tag_81:\n        /* \"#utility.yul\":10102:10141   */\n      tag_195\n        /* \"#utility.yul\":10133:10140   */\n      dup4\n        /* \"#utility.yul\":10102:10141   */\n      tag_79\n      jump\t// in\n    tag_195:\n        /* \"#utility.yul\":10163:10254   */\n      tag_196\n        /* \"#utility.yul\":10212:10253   */\n      tag_197\n        /* \"#utility.yul\":10236:10252   */\n      dup3\n        /* \"#utility.yul\":10212:10253   */\n      tag_80\n      jump\t// in\n    tag_197:\n        /* \"#utility.yul\":10204:10210   */\n      dup5\n        /* \"#utility.yul\":10197:10201   */\n      dup5\n        /* \"#utility.yul\":10191:10202   */\n      sload\n        /* \"#utility.yul\":10163:10254   */\n      tag_77\n      jump\t// in\n    tag_196:\n        /* \"#utility.yul\":10157:10161   */\n      dup3\n        /* \"#utility.yul\":10150:10255   */\n      sstore\n        /* \"#utility.yul\":10068:10261   */\n      pop\n        /* \"#utility.yul\":9992:10261   */\n      pop\n      pop\n      pop\n      jump\t// out\n        /* \"#utility.yul\":10267:10340   */\n    tag_82:\n        /* \"#utility.yul\":10312:10315   */\n      0x00\n        /* \"#utility.yul\":10267:10340   */\n      swap1\n      jump\t// out\n        /* \"#utility.yul\":10346:10535   */\n    tag_83:\n        /* \"#utility.yul\":10423:10455   */\n      tag_200\n      tag_82\n      jump\t// in\n    tag_200:\n        /* \"#utility.yul\":10464:10529   */\n      tag_201\n        /* \"#utility.yul\":10522:10528   */\n      dup2\n        /* \"#utility.yul\":10514:10520   */\n      dup5\n        /* \"#utility.yul\":10508:10512   */\n      dup5\n        /* \"#utility.yul\":10464:10529   */\n      tag_81\n      jump\t// in\n    tag_201:\n        /* \"#utility.yul\":10399:10535   */\n      pop\n        /* \"#utility.yul\":10346:10535   */\n      pop\n      pop\n      jump\t// out\n        /* \"#utility.yul\":10541:10727   */\n    tag_84:\n        /* \"#utility.yul\":10601:10721   */\n    tag_203:\n        /* \"#utility.yul\":10618:10621   */\n      dup2\n        /* \"#utility.yul\":10611:10616   */\n      dup2\n        /* \"#utility.yul\":10608:10622   */\n      lt\n        /* \"#utility.yul\":10601:10721   */\n      iszero\n      tag_205\n      jumpi\n        /* \"#utility.yul\":10672:10711   */\n      tag_206\n        /* \"#utility.yul\":10709:10710   */\n      0x00\n        /* \"#utility.yul\":10702:10707   */\n      dup3\n        /* \"#utility.yul\":10672:10711   */\n      tag_83\n      jump\t// in\n    tag_206:\n        /* \"#utility.yul\":10645:10646   */\n      0x01\n        /* \"#utility.yul\":10638:10643   */\n      dup2\n        /* \"#utility.yul\":10634:10647   */\n      add\n        /* \"#utility.yul\":10625:10647   */\n      swap1\n      pop\n        /* \"#utility.yul\":10601:10721   */\n      jump(tag_203)\n    tag_205:\n        /* \"#utility.yul\":10541:10727   */\n      pop\n      pop\n      jump\t// out\n        /* \"#utility.yul\":10733:11276   */\n    tag_85:\n        /* \"#utility.yul\":10834:10836   */\n      0x1f\n        /* \"#utility.yul\":10829:10832   */\n      dup3\n        /* \"#utility.yul\":10826:10837   */\n      gt\n        /* \"#utility.yul\":10823:11269   */\n      iszero\n      tag_208\n      jumpi\n        /* \"#utility.yul\":10868:10906   */\n      tag_209\n        /* \"#utility.yul\":10900:10905   */\n      dup2\n        /* \"#utility.yul\":10868:10906   */\n      tag_69\n      jump\t// in\n    tag_209:\n        /* \"#utility.yul\":10952:10981   */\n      tag_210\n        /* \"#utility.yul\":10970:10980   */\n      dup5\n        /* \"#utility.yul\":10952:10981   */\n      tag_75\n      jump\t// in\n    tag_210:\n        /* \"#utility.yul\":10942:10950   */\n      dup2\n        /* \"#utility.yul\":10938:10982   */\n      add\n        /* \"#utility.yul\":11135:11137   */\n      0x20\n        /* \"#utility.yul\":11123:11133   */\n      dup6\n        /* \"#utility.yul\":11120:11138   */\n      lt\n        /* \"#utility.yul\":11117:11166   */\n      iszero\n      tag_211\n      jumpi\n        /* \"#utility.yul\":11156:11164   */\n      dup2\n        /* \"#utility.yul\":11141:11164   */\n      swap1\n      pop\n        /* \"#utility.yul\":11117:11166   */\n    tag_211:\n        /* \"#utility.yul\":11179:11259   */\n      tag_212\n        /* \"#utility.yul\":11235:11257   */\n      tag_213\n        /* \"#utility.yul\":11253:11256   */\n      dup6\n        /* \"#utility.yul\":11235:11257   */\n      tag_75\n      jump\t// in\n    tag_213:\n        /* \"#utility.yul\":11225:11233   */\n      dup4\n        /* \"#utility.yul\":11221:11258   */\n      add\n        /* \"#utility.yul\":11208:11219   */\n      dup3\n        /* \"#utility.yul\":11179:11259   */\n      tag_84\n      jump\t// in\n    tag_212:\n        /* \"#utility.yul\":10838:11269   */\n      pop\n      pop\n        /* \"#utility.yul\":10823:11269   */\n    tag_208:\n        /* \"#utility.yul\":10733:11276   */\n      pop\n      pop\n      pop\n      jump\t// out\n        /* \"#utility.yul\":11282:11399   */\n    tag_86:\n        /* \"#utility.yul\":11336:11344   */\n      0x00\n        /* \"#utility.yul\":11386:11391   */\n      dup3\n        /* \"#utility.yul\":11380:11384   */\n      dup3\n        /* \"#utility.yul\":11376:11392   */\n      shr\n        /* \"#utility.yul\":11355:11392   */\n      swap1\n      pop\n        /* \"#utility.yul\":11282:11399   */\n      swap3\n      swap2\n      pop\n      pop\n      jump\t// out\n        /* \"#utility.yul\":11405:11574   */\n    tag_87:\n        /* \"#utility.yul\":11449:11455   */\n      0x00\n        /* \"#utility.yul\":11482:11533   */\n      tag_216\n        /* \"#utility.yul\":11530:11531   */\n      0x00\n        /* \"#utility.yul\":11526:11532   */\n      not\n        /* \"#utility.yul\":11518:11523   */\n      dup5\n        /* \"#utility.yul\":11515:11516   */\n      0x08\n        /* \"#utility.yul\":11511:11524   */\n      mul\n        /* \"#utility.yul\":11482:11533   */\n      tag_86\n      jump\t// in\n    tag_216:\n        /* \"#utility.yul\":11478:11534   */\n      not\n        /* \"#utility.yul\":11563:11567   */\n      dup1\n        /* \"#utility.yul\":11557:11561   */\n      dup4\n        /* \"#utility.yul\":11553:11568   */\n      and\n        /* \"#utility.yul\":11543:11568   */\n      swap2\n      pop\n        /* \"#utility.yul\":11456:11574   */\n      pop\n        /* \"#utility.yul\":11405:11574   */\n      swap3\n      swap2\n      pop\n      pop\n      jump\t// out\n        /* \"#utility.yul\":11579:11874   */\n    tag_88:\n        /* \"#utility.yul\":11655:11659   */\n      0x00\n        /* \"#utility.yul\":11801:11830   */\n      tag_218\n        /* \"#utility.yul\":11826:11829   */\n      dup4\n        /* \"#utility.yul\":11820:11824   */\n      dup4\n        /* \"#utility.yul\":11801:11830   */\n      tag_87\n      jump\t// in\n    tag_218:\n        /* \"#utility.yul\":11793:11830   */\n      swap2\n      pop\n        /* \"#utility.yul\":11863:11866   */\n      dup3\n        /* \"#utility.yul\":11860:11861   */\n      0x02\n        /* \"#utility.yul\":11856:11867   */\n      mul\n        /* \"#utility.yul\":11850:11854   */\n      dup3\n        /* \"#utility.yul\":11847:11868   */\n      or\n        /* \"#utility.yul\":11839:11868   */\n      swap1\n      pop\n        /* \"#utility.yul\":11579:11874   */\n      swap3\n      swap2\n      pop\n      pop\n      jump\t// out\n        /* \"#utility.yul\":11879:13274   */\n    tag_47:\n        /* \"#utility.yul\":11996:12033   */\n      tag_220\n        /* \"#utility.yul\":12029:12032   */\n      dup3\n        /* \"#utility.yul\":11996:12033   */\n      tag_63\n      jump\t// in\n    tag_220:\n        /* \"#utility.yul\":12098:12116   */\n      0xffffffffffffffff\n        /* \"#utility.yul\":12090:12096   */\n      dup2\n        /* \"#utility.yul\":12087:12117   */\n      gt\n        /* \"#utility.yul\":12084:12140   */\n      iszero\n      tag_221\n      jumpi\n        /* \"#utility.yul\":12120:12138   */\n      tag_222\n      tag_54\n      jump\t// in\n    tag_222:\n        /* \"#utility.yul\":12084:12140   */\n    tag_221:\n        /* \"#utility.yul\":12164:12202   */\n      tag_223\n        /* \"#utility.yul\":12196:12200   */\n      dup3\n        /* \"#utility.yul\":12190:12201   */\n      sload\n        /* \"#utility.yul\":12164:12202   */\n      tag_68\n      jump\t// in\n    tag_223:\n        /* \"#utility.yul\":12249:12316   */\n      tag_224\n        /* \"#utility.yul\":12309:12315   */\n      dup3\n        /* \"#utility.yul\":12301:12307   */\n      dup3\n        /* \"#utility.yul\":12295:12299   */\n      dup6\n        /* \"#utility.yul\":12249:12316   */\n      tag_85\n      jump\t// in\n    tag_224:\n        /* \"#utility.yul\":12343:12344   */\n      0x00\n        /* \"#utility.yul\":12367:12371   */\n      0x20\n        /* \"#utility.yul\":12354:12371   */\n      swap1\n      pop\n        /* \"#utility.yul\":12399:12401   */\n      0x1f\n        /* \"#utility.yul\":12391:12397   */\n      dup4\n        /* \"#utility.yul\":12388:12402   */\n      gt\n        /* \"#utility.yul\":12416:12417   */\n      0x01\n        /* \"#utility.yul\":12411:13029   */\n      dup2\n      eq\n      tag_226\n      jumpi\n        /* \"#utility.yul\":13073:13074   */\n      0x00\n        /* \"#utility.yul\":13090:13096   */\n      dup5\n        /* \"#utility.yul\":13087:13164   */\n      iszero\n      tag_227\n      jumpi\n        /* \"#utility.yul\":13139:13148   */\n      dup3\n        /* \"#utility.yul\":13134:13137   */\n      dup8\n        /* \"#utility.yul\":13130:13149   */\n      add\n        /* \"#utility.yul\":13124:13150   */\n      mload\n        /* \"#utility.yul\":13115:13150   */\n      swap1\n      pop\n        /* \"#utility.yul\":13087:13164   */\n    tag_227:\n        /* \"#utility.yul\":13190:13257   */\n      tag_228\n        /* \"#utility.yul\":13250:13256   */\n      dup6\n        /* \"#utility.yul\":13243:13248   */\n      dup3\n        /* \"#utility.yul\":13190:13257   */\n      tag_88\n      jump\t// in\n    tag_228:\n        /* \"#utility.yul\":13184:13188   */\n      dup7\n        /* \"#utility.yul\":13177:13258   */\n      sstore\n        /* \"#utility.yul\":13046:13268   */\n      pop\n        /* \"#utility.yul\":12381:13268   */\n      jump(tag_225)\n        /* \"#utility.yul\":12411:13029   */\n    tag_226:\n        /* \"#utility.yul\":12463:12467   */\n      0x1f\n        /* \"#utility.yul\":12459:12468   */\n      not\n        /* \"#utility.yul\":12451:12457   */\n      dup5\n        /* \"#utility.yul\":12447:12469   */\n      and\n        /* \"#utility.yul\":12497:12534   */\n      tag_229\n        /* \"#utility.yul\":12529:12533   */\n      dup7\n        /* \"#utility.yul\":12497:12534   */\n      tag_69\n      jump\t// in\n    tag_229:\n        /* \"#utility.yul\":12556:12557   */\n      0x00\n        /* \"#utility.yul\":12570:12778   */\n    tag_230:\n        /* \"#utility.yul\":12584:12591   */\n      dup3\n        /* \"#utility.yul\":12581:12582   */\n      dup2\n        /* \"#utility.yul\":12578:12592   */\n      lt\n        /* \"#utility.yul\":12570:12778   */\n      iszero\n      tag_232\n      jumpi\n        /* \"#utility.yul\":12663:12672   */\n      dup5\n        /* \"#utility.yul\":12658:12661   */\n      dup10\n        /* \"#utility.yul\":12654:12673   */\n      add\n        /* \"#utility.yul\":12648:12674   */\n      mload\n        /* \"#utility.yul\":12640:12646   */\n      dup3\n        /* \"#utility.yul\":12633:12675   */\n      sstore\n        /* \"#utility.yul\":12714:12715   */\n      0x01\n        /* \"#utility.yul\":12706:12712   */\n      dup3\n        /* \"#utility.yul\":12702:12716   */\n      add\n        /* \"#utility.yul\":12692:12716   */\n      swap2\n      pop\n        /* \"#utility.yul\":12761:12763   */\n      0x20\n        /* \"#utility.yul\":12750:12759   */\n      dup6\n        /* \"#utility.yul\":12746:12764   */\n      add\n        /* \"#utility.yul\":12733:12764   */\n      swap5\n      pop\n        /* \"#utility.yul\":12607:12611   */\n      0x20\n        /* \"#utility.yul\":12604:12605   */\n      dup2\n        /* \"#utility.yul\":12600:12612   */\n      add\n        /* \"#utility.yul\":12595:12612   */\n      swap1\n      pop\n        /* \"#utility.yul\":12570:12778   */\n      jump(tag_230)\n    tag_232:\n        /* \"#utility.yul\":12806:12812   */\n      dup7\n        /* \"#utility.yul\":12797:12804   */\n      dup4\n        /* \"#utility.yul\":12794:12813   */\n      lt\n        /* \"#utility.yul\":12791:12970   */\n      iszero\n      tag_233\n      jumpi\n        /* \"#utility.yul\":12864:12873   */\n      dup5\n        /* \"#utility.yul\":12859:12862   */\n      dup10\n        /* \"#utility.yul\":12855:12874   */\n      add\n        /* \"#utility.yul\":12849:12875   */\n      mload\n        /* \"#utility.yul\":12907:12955   */\n      tag_234\n        /* \"#utility.yul\":12949:12953   */\n      0x1f\n        /* \"#utility.yul\":12941:12947   */\n      dup10\n        /* \"#utility.yul\":12937:12954   */\n      and\n        /* \"#utility.yul\":12926:12935   */\n      dup3\n        /* \"#utility.yul\":12907:12955   */\n      tag_87\n      jump\t// in\n    tag_234:\n        /* \"#utility.yul\":12899:12905   */\n      dup4\n        /* \"#utility.yul\":12892:12956   */\n      sstore\n        /* \"#utility.yul\":12814:12970   */\n      pop\n        /* \"#utility.yul\":12791:12970   */\n    tag_233:\n        /* \"#utility.yul\":13016:13017   */\n      0x01\n        /* \"#utility.yul\":13012:13013   */\n      0x02\n        /* \"#utility.yul\":13004:13010   */\n      dup9\n        /* \"#utility.yul\":13000:13014   */\n      mul\n        /* \"#utility.yul\":12996:13018   */\n      add\n        /* \"#utility.yul\":12990:12994   */\n      dup9\n        /* \"#utility.yul\":12983:13019   */\n      sstore\n        /* \"#utility.yul\":12418:13029   */\n      pop\n      pop\n      pop\n        /* \"#utility.yul\":12381:13268   */\n    tag_225:\n      pop\n        /* \"#utility.yul\":11971:13274   */\n      pop\n      pop\n      pop\n        /* \"#utility.yul\":11879:13274   */\n      pop\n      pop\n      jump\t// out\n\n    auxdata: 0xa2646970667358221220dc1c3029268f1d59e6a2412678f17fb96c33eaff2abd2072a01a9f0c95f437d464736f6c634300081a0033\n}\n",
				"bytecode": {
					"linkReferences": {},
					"object": "6080604052348015600e575f80fd5b506109808061001c5f395ff3fe608060405234801561000f575f80fd5b506004361061003f575f3560e01c8063805265e514610043578063b9830ff114610073578063f1772a331461007d575b5f80fd5b61005d60048036038101906100589190610361565b610099565b60405161006a91906103c0565b60405180910390f35b61007b6100bf565b005b61009760048036038101906100929190610361565b61011b565b005b5f80826040516100a9919061042b565b9081526020016040518091039020549050919050565b5f5b600180549050811015610118575f80600183815481106100e4576100e3610441565b5b905f5260205f20016040516100f9919061055d565b90815260200160405180910390208190555080806001019150506100c1565b50565b5f8160405161012a919061042b565b90815260200160405180910390205f815480929190610148906105a0565b91905055505f5b6001805490508110156101dd578160405160200161016d919061062f565b604051602081830303815290604052805190602001206001828154811061019757610196610441565b5b905f5260205f20016040516020016101af91906106d0565b60405160208183030381529060405280519060200120036101d05750610211565b808060010191505061014f565b50600181908060018154018082558091505060019003905f5260205f20015f90919091909150908161020f919061087b565b505b50565b5f604051905090565b5f80fd5b5f80fd5b5f80fd5b5f80fd5b5f601f19601f8301169050919050565b7f4e487b71000000000000000000000000000000000000000000000000000000005f52604160045260245ffd5b6102738261022d565b810181811067ffffffffffffffff821117156102925761029161023d565b5b80604052505050565b5f6102a4610214565b90506102b0828261026a565b919050565b5f67ffffffffffffffff8211156102cf576102ce61023d565b5b6102d88261022d565b9050602081019050919050565b828183375f83830152505050565b5f610305610300846102b5565b61029b565b90508281526020810184848401111561032157610320610229565b5b61032c8482856102e5565b509392505050565b5f82601f83011261034857610347610225565b5b81356103588482602086016102f3565b91505092915050565b5f602082840312156103765761037561021d565b5b5f82013567ffffffffffffffff81111561039357610392610221565b5b61039f84828501610334565b91505092915050565b5f819050919050565b6103ba816103a8565b82525050565b5f6020820190506103d35f8301846103b1565b92915050565b5f81519050919050565b5f81905092915050565b8281835e5f83830152505050565b5f610405826103d9565b61040f81856103e3565b935061041f8185602086016103ed565b80840191505092915050565b5f61043682846103fb565b915081905092915050565b7f4e487b71000000000000000000000000000000000000000000000000000000005f52603260045260245ffd5b7f4e487b71000000000000000000000000000000000000000000000000000000005f52602260045260245ffd5b5f60028204905060018216806104b257607f821691505b6020821081036104c5576104c461046e565b5b50919050565b5f819050815f5260205f209050919050565b5f81546104e98161049b565b6104f381866103e3565b9450600182165f811461050d576001811461052257610554565b60ff1983168652811515820286019350610554565b61052b856104cb565b5f5b8381101561054c5781548189015260018201915060208101905061052d565b838801955050505b50505092915050565b5f61056882846104dd565b915081905092915050565b7f4e487b71000000000000000000000000000000000000000000000000000000005f52601160045260245ffd5b5f6105aa826103a8565b91507fffffffffffffffffffffffffffffffffffffffffffffffffffffffffffffffff82036105dc576105db610573565b5b600182019050919050565b5f82825260208201905092915050565b5f610601826103d9565b61060b81856105e7565b935061061b8185602086016103ed565b6106248161022d565b840191505092915050565b5f6020820190508181035f83015261064781846105f7565b905092915050565b5f815461065b8161049b565b61066581866105e7565b9450600182165f811461067f5760018114610695576106c7565b60ff1983168652811515602002860193506106c7565b61069e856104cb565b5f5b838110156106bf578154818901526001820191506020810190506106a0565b808801955050505b50505092915050565b5f6020820190508181035f8301526106e8818461064f565b905092915050565b5f6020601f8301049050919050565b5f82821b905092915050565b5f6008830261073a7fffffffffffffffffffffffffffffffffffffffffffffffffffffffffffffffff826106ff565b61074486836106ff565b95508019841693508086168417925050509392505050565b5f819050919050565b5f61077f61077a610775846103a8565b61075c565b6103a8565b9050919050565b5f819050919050565b61079883610765565b6107ac6107a482610786565b84845461070b565b825550505050565b5f90565b6107c06107b4565b6107cb81848461078f565b505050565b5b818110156107ee576107e35f826107b8565b6001810190506107d1565b5050565b601f82111561083357610804816104cb565b61080d846106f0565b8101602085101561081c578190505b610830610828856106f0565b8301826107d0565b50505b505050565b5f82821c905092915050565b5f6108535f1984600802610838565b1980831691505092915050565b5f61086b8383610844565b9150826002028217905092915050565b610884826103d9565b67ffffffffffffffff81111561089d5761089c61023d565b5b6108a7825461049b565b6108b28282856107f2565b5f60209050601f8311600181146108e3575f84156108d1578287015190505b6108db8582610860565b865550610942565b601f1984166108f1866104cb565b5f5b82811015610918578489015182556001820191506020850194506020810190506108f3565b868310156109355784890151610931601f891682610844565b8355505b6001600288020188555050505b50505050505056fea2646970667358221220dc1c3029268f1d59e6a2412678f17fb96c33eaff2abd2072a01a9f0c95f437d464736f6c634300081a0033",
					"opcodes": "PUSH1 0x80 PUSH1 0x40 MSTORE CALLVALUE DUP1 ISZERO PUSH1 0xE JUMPI PUSH0 DUP1 REVERT JUMPDEST POP PUSH2 0x980 DUP1 PUSH2 0x1C PUSH0 CODECOPY PUSH0 RETURN INVALID PUSH1 0x80 PUSH1 0x40 MSTORE CALLVALUE DUP1 ISZERO PUSH2 0xF JUMPI PUSH0 DUP1 REVERT JUMPDEST POP PUSH1 0x4 CALLDATASIZE LT PUSH2 0x3F JUMPI PUSH0 CALLDATALOAD PUSH1 0xE0 SHR DUP1 PUSH4 0x805265E5 EQ PUSH2 0x43 JUMPI DUP1 PUSH4 0xB9830FF1 EQ PUSH2 0x73 JUMPI DUP1 PUSH4 0xF1772A33 EQ PUSH2 0x7D JUMPI JUMPDEST PUSH0 DUP1 REVERT JUMPDEST PUSH2 0x5D PUSH1 0x4 DUP1 CALLDATASIZE SUB DUP2 ADD SWAP1 PUSH2 0x58 SWAP2 SWAP1 PUSH2 0x361 JUMP JUMPDEST PUSH2 0x99 JUMP JUMPDEST PUSH1 0x40 MLOAD PUSH2 0x6A SWAP2 SWAP1 PUSH2 0x3C0 JUMP JUMPDEST PUSH1 0x40 MLOAD DUP1 SWAP2 SUB SWAP1 RETURN JUMPDEST PUSH2 0x7B PUSH2 0xBF JUMP JUMPDEST STOP JUMPDEST PUSH2 0x97 PUSH1 0x4 DUP1 CALLDATASIZE SUB DUP2 ADD SWAP1 PUSH2 0x92 SWAP2 SWAP1 PUSH2 0x361 JUMP JUMPDEST PUSH2 0x11B JUMP JUMPDEST STOP JUMPDEST PUSH0 DUP1 DUP3 PUSH1 0x40 MLOAD PUSH2 0xA9 SWAP2 SWAP1 PUSH2 0x42B JUMP JUMPDEST SWAP1 DUP2 MSTORE PUSH1 0x20 ADD PUSH1 0x40 MLOAD DUP1 SWAP2 SUB SWAP1 KECCAK256 SLOAD SWAP1 POP SWAP2 SWAP1 POP JUMP JUMPDEST PUSH0 JUMPDEST PUSH1 0x1 DUP1 SLOAD SWAP1 POP DUP2 LT ISZERO PUSH2 0x118 JUMPI PUSH0 DUP1 PUSH1 0x1 DUP4 DUP2 SLOAD DUP2 LT PUSH2 0xE4 JUMPI PUSH2 0xE3 PUSH2 0x441 JUMP JUMPDEST JUMPDEST SWAP1 PUSH0 MSTORE PUSH1 0x20 PUSH0 KECCAK256 ADD PUSH1 0x40 MLOAD PUSH2 0xF9 SWAP2 SWAP1 PUSH2 0x55D JUMP JUMPDEST SWAP1 DUP2 MSTORE PUSH1 0x20 ADD PUSH1 0x40 MLOAD DUP1 SWAP2 SUB SWAP1 KECCAK256 DUP2 SWAP1 SSTORE POP DUP1 DUP1 PUSH1 0x1 ADD SWAP2 POP POP PUSH2 0xC1 JUMP JUMPDEST POP JUMP JUMPDEST PUSH0 DUP2 PUSH1 0x40 MLOAD PUSH2 0x12A SWAP2 SWAP1 PUSH2 0x42B JUMP JUMPDEST SWAP1 DUP2 MSTORE PUSH1 0x20 ADD PUSH1 0x40 MLOAD DUP1 SWAP2 SUB SWAP1 KECCAK256 PUSH0 DUP2 SLOAD DUP1 SWAP3 SWAP2 SWAP1 PUSH2 0x148 SWAP1 PUSH2 0x5A0 JUMP JUMPDEST SWAP2 SWAP1 POP SSTORE POP PUSH0 JUMPDEST PUSH1 0x1 DUP1 SLOAD SWAP1 POP DUP2 LT ISZERO PUSH2 0x1DD JUMPI DUP2 PUSH1 0x40 MLOAD PUSH1 0x20 ADD PUSH2 0x16D SWAP2 SWAP1 PUSH2 0x62F JUMP JUMPDEST PUSH1 0x40 MLOAD PUSH1 0x20 DUP2 DUP4 SUB SUB DUP2 MSTORE SWAP1 PUSH1 0x40 MSTORE DUP1 MLOAD SWAP1 PUSH1 0x20 ADD KECCAK256 PUSH1 0x1 DUP3 DUP2 SLOAD DUP2 LT PUSH2 0x197 JUMPI PUSH2 0x196 PUSH2 0x441 JUMP JUMPDEST JUMPDEST SWAP1 PUSH0 MSTORE PUSH1 0x20 PUSH0 KECCAK256 ADD PUSH1 0x40 MLOAD PUSH1 0x20 ADD PUSH2 0x1AF SWAP2 SWAP1 PUSH2 0x6D0 JUMP JUMPDEST PUSH1 0x40 MLOAD PUSH1 0x20 DUP2 DUP4 SUB SUB DUP2 MSTORE SWAP1 PUSH1 0x40 MSTORE DUP1 MLOAD SWAP1 PUSH1 0x20 ADD KECCAK256 SUB PUSH2 0x1D0 JUMPI POP PUSH2 0x211 JUMP JUMPDEST DUP1 DUP1 PUSH1 0x1 ADD SWAP2 POP POP PUSH2 0x14F JUMP JUMPDEST POP PUSH1 0x1 DUP2 SWAP1 DUP1 PUSH1 0x1 DUP2 SLOAD ADD DUP1 DUP3 SSTORE DUP1 SWAP2 POP POP PUSH1 0x1 SWAP1 SUB SWAP1 PUSH0 MSTORE PUSH1 0x20 PUSH0 KECCAK256 ADD PUSH0 SWAP1 SWAP2 SWAP1 SWAP2 SWAP1 SWAP2 POP SWAP1 DUP2 PUSH2 0x20F SWAP2 SWAP1 PUSH2 0x87B JUMP JUMPDEST POP JUMPDEST POP JUMP JUMPDEST PUSH0 PUSH1 0x40 MLOAD SWAP1 POP SWAP1 JUMP JUMPDEST PUSH0 DUP1 REVERT JUMPDEST PUSH0 DUP1 REVERT JUMPDEST PUSH0 DUP1 REVERT JUMPDEST PUSH0 DUP1 REVERT JUMPDEST PUSH0 PUSH1 0x1F NOT PUSH1 0x1F DUP4 ADD AND SWAP1 POP SWAP2 SWAP1 POP JUMP JUMPDEST PUSH32 0x4E487B7100000000000000000000000000000000000000000000000000000000 PUSH0 MSTORE PUSH1 0x41 PUSH1 0x4 MSTORE PUSH1 0x24 PUSH0 REVERT JUMPDEST PUSH2 0x273 DUP3 PUSH2 0x22D JUMP JUMPDEST DUP2 ADD DUP2 DUP2 LT PUSH8 0xFFFFFFFFFFFFFFFF DUP3 GT OR ISZERO PUSH2 0x292 JUMPI PUSH2 0x291 PUSH2 0x23D JUMP JUMPDEST JUMPDEST DUP1 PUSH1 0x40 MSTORE POP POP POP JUMP JUMPDEST PUSH0 PUSH2 0x2A4 PUSH2 0x214 JUMP JUMPDEST SWAP1 POP PUSH2 0x2B0 DUP3 DUP3 PUSH2 0x26A JUMP JUMPDEST SWAP2 SWAP1 POP JUMP JUMPDEST PUSH0 PUSH8 0xFFFFFFFFFFFFFFFF DUP3 GT ISZERO PUSH2 0x2CF JUMPI PUSH2 0x2CE PUSH2 0x23D JUMP JUMPDEST JUMPDEST PUSH2 0x2D8 DUP3 PUSH2 0x22D JUMP JUMPDEST SWAP1 POP PUSH1 0x20 DUP2 ADD SWAP1 POP SWAP2 SWAP1 POP JUMP JUMPDEST DUP3 DUP2 DUP4 CALLDATACOPY PUSH0 DUP4 DUP4 ADD MSTORE POP POP POP JUMP JUMPDEST PUSH0 PUSH2 0x305 PUSH2 0x300 DUP5 PUSH2 0x2B5 JUMP JUMPDEST PUSH2 0x29B JUMP JUMPDEST SWAP1 POP DUP3 DUP2 MSTORE PUSH1 0x20 DUP2 ADD DUP5 DUP5 DUP5 ADD GT ISZERO PUSH2 0x321 JUMPI PUSH2 0x320 PUSH2 0x229 JUMP JUMPDEST JUMPDEST PUSH2 0x32C DUP5 DUP3 DUP6 PUSH2 0x2E5 JUMP JUMPDEST POP SWAP4 SWAP3 POP POP POP JUMP JUMPDEST PUSH0 DUP3 PUSH1 0x1F DUP4 ADD SLT PUSH2 0x348 JUMPI PUSH2 0x347 PUSH2 0x225 JUMP JUMPDEST JUMPDEST DUP2 CALLDATALOAD PUSH2 0x358 DUP5 DUP3 PUSH1 0x20 DUP7 ADD PUSH2 0x2F3 JUMP JUMPDEST SWAP2 POP POP SWAP3 SWAP2 POP POP JUMP JUMPDEST PUSH0 PUSH1 0x20 DUP3 DUP5 SUB SLT ISZERO PUSH2 0x376 JUMPI PUSH2 0x375 PUSH2 0x21D JUMP JUMPDEST JUMPDEST PUSH0 DUP3 ADD CALLDATALOAD PUSH8 0xFFFFFFFFFFFFFFFF DUP2 GT ISZERO PUSH2 0x393 JUMPI PUSH2 0x392 PUSH2 0x221 JUMP JUMPDEST JUMPDEST PUSH2 0x39F DUP5 DUP3 DUP6 ADD PUSH2 0x334 JUMP JUMPDEST SWAP2 POP POP SWAP3 SWAP2 POP POP JUMP JUMPDEST PUSH0 DUP2 SWAP1 POP SWAP2 SWAP1 POP JUMP JUMPDEST PUSH2 0x3BA DUP2 PUSH2 0x3A8 JUMP JUMPDEST DUP3 MSTORE POP POP JUMP JUMPDEST PUSH0 PUSH1 0x20 DUP3 ADD SWAP1 POP PUSH2 0x3D3 PUSH0 DUP4 ADD DUP5 PUSH2 0x3B1 JUMP JUMPDEST SWAP3 SWAP2 POP POP JUMP JUMPDEST PUSH0 DUP2 MLOAD SWAP1 POP SWAP2 SWAP1 POP JUMP JUMPDEST PUSH0 DUP2 SWAP1 POP SWAP3 SWAP2 POP POP JUMP JUMPDEST DUP3 DUP2 DUP4 MCOPY PUSH0 DUP4 DUP4 ADD MSTORE POP POP POP JUMP JUMPDEST PUSH0 PUSH2 0x405 DUP3 PUSH2 0x3D9 JUMP JUMPDEST PUSH2 0x40F DUP2 DUP6 PUSH2 0x3E3 JUMP JUMPDEST SWAP4 POP PUSH2 0x41F DUP2 DUP6 PUSH1 0x20 DUP7 ADD PUSH2 0x3ED JUMP JUMPDEST DUP1 DUP5 ADD SWAP2 POP POP SWAP3 SWAP2 POP POP JUMP JUMPDEST PUSH0 PUSH2 0x436 DUP3 DUP5 PUSH2 0x3FB JUMP JUMPDEST SWAP2 POP DUP2 SWAP1 POP SWAP3 SWAP2 POP POP JUMP JUMPDEST PUSH32 0x4E487B7100000000000000000000000000000000000000000000000000000000 PUSH0 MSTORE PUSH1 0x32 PUSH1 0x4 MSTORE PUSH1 0x24 PUSH0 REVERT JUMPDEST PUSH32 0x4E487B7100000000000000000000000000000000000000000000000000000000 PUSH0 MSTORE PUSH1 0x22 PUSH1 0x4 MSTORE PUSH1 0x24 PUSH0 REVERT JUMPDEST PUSH0 PUSH1 0x2 DUP3 DIV SWAP1 POP PUSH1 0x1 DUP3 AND DUP1 PUSH2 0x4B2 JUMPI PUSH1 0x7F DUP3 AND SWAP2 POP JUMPDEST PUSH1 0x20 DUP3 LT DUP2 SUB PUSH2 0x4C5 JUMPI PUSH2 0x4C4 PUSH2 0x46E JUMP JUMPDEST JUMPDEST POP SWAP2 SWAP1 POP JUMP JUMPDEST PUSH0 DUP2 SWAP1 POP DUP2 PUSH0 MSTORE PUSH1 0x20 PUSH0 KECCAK256 SWAP1 POP SWAP2 SWAP1 POP JUMP JUMPDEST PUSH0 DUP2 SLOAD PUSH2 0x4E9 DUP2 PUSH2 0x49B JUMP JUMPDEST PUSH2 0x4F3 DUP2 DUP7 PUSH2 0x3E3 JUMP JUMPDEST SWAP5 POP PUSH1 0x1 DUP3 AND PUSH0 DUP2 EQ PUSH2 0x50D JUMPI PUSH1 0x1 DUP2 EQ PUSH2 0x522 JUMPI PUSH2 0x554 JUMP JUMPDEST PUSH1 0xFF NOT DUP4 AND DUP7 MSTORE DUP2 ISZERO ISZERO DUP3 MUL DUP7 ADD SWAP4 POP PUSH2 0x554 JUMP JUMPDEST PUSH2 0x52B DUP6 PUSH2 0x4CB JUMP JUMPDEST PUSH0 JUMPDEST DUP4 DUP2 LT ISZERO PUSH2 0x54C JUMPI DUP2 SLOAD DUP2 DUP10 ADD MSTORE PUSH1 0x1 DUP3 ADD SWAP2 POP PUSH1 0x20 DUP2 ADD SWAP1 POP PUSH2 0x52D JUMP JUMPDEST DUP4 DUP9 ADD SWAP6 POP POP POP JUMPDEST POP POP POP SWAP3 SWAP2 POP POP JUMP JUMPDEST PUSH0 PUSH2 0x568 DUP3 DUP5 PUSH2 0x4DD JUMP JUMPDEST SWAP2 POP DUP2 SWAP1 POP SWAP3 SWAP2 POP POP JUMP JUMPDEST PUSH32 0x4E487B7100000000000000000000000000000000000000000000000000000000 PUSH0 MSTORE PUSH1 0x11 PUSH1 0x4 MSTORE PUSH1 0x24 PUSH0 REVERT JUMPDEST PUSH0 PUSH2 0x5AA DUP3 PUSH2 0x3A8 JUMP JUMPDEST SWAP2 POP PUSH32 0xFFFFFFFFFFFFFFFFFFFFFFFFFFFFFFFFFFFFFFFFFFFFFFFFFFFFFFFFFFFFFFFF DUP3 SUB PUSH2 0x5DC JUMPI PUSH2 0x5DB PUSH2 0x573 JUMP JUMPDEST JUMPDEST PUSH1 0x1 DUP3 ADD SWAP1 POP SWAP2 SWAP1 POP JUMP JUMPDEST PUSH0 DUP3 DUP3 MSTORE PUSH1 0x20 DUP3 ADD SWAP1 POP SWAP3 SWAP2 POP POP JUMP JUMPDEST PUSH0 PUSH2 0x601 DUP3 PUSH2 0x3D9 JUMP JUMPDEST PUSH2 0x60B DUP2 DUP6 PUSH2 0x5E7 JUMP JUMPDEST SWAP4 POP PUSH2 0x61B DUP2 DUP6 PUSH1 0x20 DUP7 ADD PUSH2 0x3ED JUMP JUMPDEST PUSH2 0x624 DUP2 PUSH2 0x22D JUMP JUMPDEST DUP5 ADD SWAP2 POP POP SWAP3 SWAP2 POP POP JUMP JUMPDEST PUSH0 PUSH1 0x20 DUP3 ADD SWAP1 POP DUP2 DUP2 SUB PUSH0 DUP4 ADD MSTORE PUSH2 0x647 DUP2 DUP5 PUSH2 0x5F7 JUMP JUMPDEST SWAP1 POP SWAP3 SWAP2 POP POP JUMP JUMPDEST PUSH0 DUP2 SLOAD PUSH2 0x65B DUP2 PUSH2 0x49B JUMP JUMPDEST PUSH2 0x665 DUP2 DUP7 PUSH2 0x5E7 JUMP JUMPDEST SWAP5 POP PUSH1 0x1 DUP3 AND PUSH0 DUP2 EQ PUSH2 0x67F JUMPI PUSH1 0x1 DUP2 EQ PUSH2 0x695 JUMPI PUSH2 0x6C7 JUMP JUMPDEST PUSH1 0xFF NOT DUP4 AND DUP7 MSTORE DUP2 ISZERO ISZERO PUSH1 0x20 MUL DUP7 ADD SWAP4 POP PUSH2 0x6C7 JUMP JUMPDEST PUSH2 0x69E DUP6 PUSH2 0x4CB JUMP JUMPDEST PUSH0 JUMPDEST DUP4 DUP2 LT ISZERO PUSH2 0x6BF JUMPI DUP2 SLOAD DUP2 DUP10 ADD MSTORE PUSH1 0x1 DUP3 ADD SWAP2 POP PUSH1 0x20 DUP2 ADD SWAP1 POP PUSH2 0x6A0 JUMP JUMPDEST DUP1 DUP9 ADD SWAP6 POP POP POP JUMPDEST POP POP POP SWAP3 SWAP2 POP POP JUMP JUMPDEST PUSH0 PUSH1 0x20 DUP3 ADD SWAP1 POP DUP2 DUP2 SUB PUSH0 DUP4 ADD MSTORE PUSH2 0x6E8 DUP2 DUP5 PUSH2 0x64F JUMP JUMPDEST SWAP1 POP SWAP3 SWAP2 POP POP JUMP JUMPDEST PUSH0 PUSH1 0x20 PUSH1 0x1F DUP4 ADD DIV SWAP1 POP SWAP2 SWAP1 POP JUMP JUMPDEST PUSH0 DUP3 DUP3 SHL SWAP1 POP SWAP3 SWAP2 POP POP JUMP JUMPDEST PUSH0 PUSH1 0x8 DUP4 MUL PUSH2 0x73A PUSH32 0xFFFFFFFFFFFFFFFFFFFFFFFFFFFFFFFFFFFFFFFFFFFFFFFFFFFFFFFFFFFFFFFF DUP3 PUSH2 0x6FF JUMP JUMPDEST PUSH2 0x744 DUP7 DUP4 PUSH2 0x6FF JUMP JUMPDEST SWAP6 POP DUP1 NOT DUP5 AND SWAP4 POP DUP1 DUP7 AND DUP5 OR SWAP3 POP POP POP SWAP4 SWAP3 POP POP POP JUMP JUMPDEST PUSH0 DUP2 SWAP1 POP SWAP2 SWAP1 POP JUMP JUMPDEST PUSH0 PUSH2 0x77F PUSH2 0x77A PUSH2 0x775 DUP5 PUSH2 0x3A8 JUMP JUMPDEST PUSH2 0x75C JUMP JUMPDEST PUSH2 0x3A8 JUMP JUMPDEST SWAP1 POP SWAP2 SWAP1 POP JUMP JUMPDEST PUSH0 DUP2 SWAP1 POP SWAP2 SWAP1 POP JUMP JUMPDEST PUSH2 0x798 DUP4 PUSH2 0x765 JUMP JUMPDEST PUSH2 0x7AC PUSH2 0x7A4 DUP3 PUSH2 0x786 JUMP JUMPDEST DUP5 DUP5 SLOAD PUSH2 0x70B JUMP JUMPDEST DUP3 SSTORE POP POP POP POP JUMP JUMPDEST PUSH0 SWAP1 JUMP JUMPDEST PUSH2 0x7C0 PUSH2 0x7B4 JUMP JUMPDEST PUSH2 0x7CB DUP2 DUP5 DUP5 PUSH2 0x78F JUMP JUMPDEST POP POP POP JUMP JUMPDEST JUMPDEST DUP2 DUP2 LT ISZERO PUSH2 0x7EE JUMPI PUSH2 0x7E3 PUSH0 DUP3 PUSH2 0x7B8 JUMP JUMPDEST PUSH1 0x1 DUP2 ADD SWAP1 POP PUSH2 0x7D1 JUMP JUMPDEST POP POP JUMP JUMPDEST PUSH1 0x1F DUP3 GT ISZERO PUSH2 0x833 JUMPI PUSH2 0x804 DUP2 PUSH2 0x4CB JUMP JUMPDEST PUSH2 0x80D DUP5 PUSH2 0x6F0 JUMP JUMPDEST DUP2 ADD PUSH1 0x20 DUP6 LT ISZERO PUSH2 0x81C JUMPI DUP2 SWAP1 POP JUMPDEST PUSH2 0x830 PUSH2 0x828 DUP6 PUSH2 0x6F0 JUMP JUMPDEST DUP4 ADD DUP3 PUSH2 0x7D0 JUMP JUMPDEST POP POP JUMPDEST POP POP POP JUMP JUMPDEST PUSH0 DUP3 DUP3 SHR SWAP1 POP SWAP3 SWAP2 POP POP JUMP JUMPDEST PUSH0 PUSH2 0x853 PUSH0 NOT DUP5 PUSH1 0x8 MUL PUSH2 0x838 JUMP JUMPDEST NOT DUP1 DUP4 AND SWAP2 POP POP SWAP3 SWAP2 POP POP JUMP JUMPDEST PUSH0 PUSH2 0x86B DUP4 DUP4 PUSH2 0x844 JUMP JUMPDEST SWAP2 POP DUP3 PUSH1 0x2 MUL DUP3 OR SWAP1 POP SWAP3 SWAP2 POP POP JUMP JUMPDEST PUSH2 0x884 DUP3 PUSH2 0x3D9 JUMP JUMPDEST PUSH8 0xFFFFFFFFFFFFFFFF DUP2 GT ISZERO PUSH2 0x89D JUMPI PUSH2 0x89C PUSH2 0x23D JUMP JUMPDEST JUMPDEST PUSH2 0x8A7 DUP3 SLOAD PUSH2 0x49B JUMP JUMPDEST PUSH2 0x8B2 DUP3 DUP3 DUP6 PUSH2 0x7F2 JUMP JUMPDEST PUSH0 PUSH1 0x20 SWAP1 POP PUSH1 0x1F DUP4 GT PUSH1 0x1 DUP2 EQ PUSH2 0x8E3 JUMPI PUSH0 DUP5 ISZERO PUSH2 0x8D1 JUMPI DUP3 DUP8 ADD MLOAD SWAP1 POP JUMPDEST PUSH2 0x8DB DUP6 DUP3 PUSH2 0x860 JUMP JUMPDEST DUP7 SSTORE POP PUSH2 0x942 JUMP JUMPDEST PUSH1 0x1F NOT DUP5 AND PUSH2 0x8F1 DUP7 PUSH2 0x4CB JUMP JUMPDEST PUSH0 JUMPDEST DUP3 DUP2 LT ISZERO PUSH2 0x918 JUMPI DUP5 DUP10 ADD MLOAD DUP3 SSTORE PUSH1 0x1 DUP3 ADD SWAP2 POP PUSH1 0x20 DUP6 ADD SWAP5 POP PUSH1 0x20 DUP2 ADD SWAP1 POP PUSH2 0x8F3 JUMP JUMPDEST DUP7 DUP4 LT ISZERO PUSH2 0x935 JUMPI DUP5 DUP10 ADD MLOAD PUSH2 0x931 PUSH1 0x1F DUP10 AND DUP3 PUSH2 0x844 JUMP JUMPDEST DUP4 SSTORE POP JUMPDEST PUSH1 0x1 PUSH1 0x2 DUP9 MUL ADD DUP9 SSTORE POP POP POP JUMPDEST POP POP POP POP POP POP JUMP INVALID LOG2 PUSH5 0x6970667358 0x22 SLT KECCAK256 0xDC SHR ADDRESS 0x29 0x26 DUP16 SAR MSIZE 0xE6 LOG2 COINBASE 0x26 PUSH25 0xF17FB96C33EAFF2ABD2072A01A9F0C95F437D464736F6C6343 STOP ADDMOD BYTE STOP CALLER "
				},
				"gasEstimates": {
					"creation": {
						"codeDepositCost": "486400",
						"executionCost": "516",
						"totalCost": "486916"
					},
					"external": {
						"getVotes(string)": "infinite",
						"resetVotes()": "infinite",
						"setVote(string)": "infinite"
					}
				},
				"methodIdentifiers": {
					"getVotes(string)": "805265e5",
					"resetVotes()": "b9830ff1",
					"setVote(string)": "f1772a33"
				}
			},
			"storageLayout": {
				"storage": [
					{
						"astId": 5,
						"contract": "Voting/voting.sol:Voting",
						"label": "voteMaps",
						"offset": 0,
						"slot": "0",
						"type": "t_mapping(t_string_memory_ptr,t_uint256)"
					},
					{
						"astId": 8,
						"contract": "Voting/voting.sol:Voting",
						"label": "users",
						"offset": 0,
						"slot": "1",
						"type": "t_array(t_string_storage)dyn_storage"
					}
				],
				"types": {
					"t_array(t_string_storage)dyn_storage": {
						"base": "t_string_storage",
						"encoding": "dynamic_array",
						"label": "string[]",
						"numberOfBytes": "32"
					},
					"t_mapping(t_string_memory_ptr,t_uint256)": {
						"encoding": "mapping",
						"key": "t_string_memory_ptr",
						"label": "mapping(string => uint256)",
						"numberOfBytes": "32",
						"value": "t_uint256"
					},
					"t_string_memory_ptr": {
						"encoding": "bytes",
						"label": "string",
						"numberOfBytes": "32"
					},
					"t_string_storage": {
						"encoding": "bytes",
						"label": "string",
						"numberOfBytes": "32"
					},
					"t_uint256": {
						"encoding": "inplace",
						"label": "uint256",
						"numberOfBytes": "32"
					}
				}
			},
			"userdoc": {
				"kind": "user",
				"methods": {},
				"version": 1
			}
		}
	}
}